:020000040800F2
:10000000A0080020C5000008311F00088318000860
:1000100000000000000000000000000000000000E0
:100020000000000000000000000000007120000837
:100030000000000000000000AD1F0008552100086E
:10004000D700000800000000D7000008D700000813
:10005000D7000008D7000008D7000008D700000824
:100060000000000001050008D7000008D7000008C4
:10007000D7000008D7000008D700000800000000E3
:10008000D70000080000000000000000D7000008B2
:1000900000000000D7000008D7000008D7000008C3
:1000A00000000000D700000800000000A1250008A3
:1000B0000348854600F050F800480047ED26000848
:1000C000A00800200448804704480047FEE7FEE7F8
:1000D000FEE7FEE7FEE7FEE73D220008B10000086C
:1000E00030B50B46014600202022012409E00D46D0
:1000F000D5409D4205D31D469540491B2546954058
:1001000040191546521E002DF1DC30BD70B500249B
:100110002546002801DA01244042002901DA0125A0
:100120004942FFF7DDFFAC4200D04042002C00D036
:10013000494270BDD2B201E00270401C491EFBD2A0
:1001400070470022F6E710B513460A4604461946E2
:10015000FFF7F0FF204610BD064C0125064E05E0D6
:10016000E36807CC2B430C3C98471034B442F7D3D8
:10017000FFF7A2FF786F0008986F000870B504467B
:1001800000688168490720D5816810264907002941
:1001900005DA8168890702D481683143816000F003
:1001A0005BFE05460DE000F057FE401B022808D913
:1001B000606C30436064A06C01210843A064084671
:1001C00070BD206880684007EDD4002070BD10B578
:1001D0000146406A426C50231A420AD1416C012206
:1001E0005202114341640168CA681205920F05D09A
:1001F00020E0C06B026B0846904710BD026A002ADF
:1002000018D10A68120715D58A6853070122002BF6
:1002100009DB4B680C24A3434B60416C13029943E8
:100220001143416406E0416C202319434164816C11
:100230001143816400F0E6FA10BD10B5406A416CCC
:10024000402211434164816C04221143816400F017
:10025000DBFA10BD10B5406A00F0D5FA10BDF8B554
:100260000446006881688907890F012928D101683F
:10027000C90702D1C168090422D58168052211404D
:100280001025012601290FD18168022211438160C6
:1002900021680320086000F0DFFD07460CE000F055
:1002A000DBFDC01B022807D9606C28436064A06C8A
:1002B0003043A0640120F8BD20688068C007EED1FB
:1002C0000020F8BDF8B50446002000902068816841
:1002D0008907890F012905D10168C9072CD1C16897
:1002E000090429D48168154A1026114001250029E6
:1002F00015D1816829438160124811490068FFF7D0
:10030000EFFE00E0401E00900028FBD100F0A4FDAD
:1003100007460CE000F0A0FDC01B022807D9606C66
:1003200030436064A06C2843A0640120F8BD2068BD
:100330000068C043C007EDD10020F8BD1700008061
:1003400040420F006400002070B518480178002971
:100350002BD000210170164800F0ACFB002803D020
:100360004B2114A002F058F9164A002015466435B6
:100370004100401C535AC0B26B523228F8D332228B
:1003800010490B4800F046FB002803D0512109A07A
:1003900002F042F900246000295A0A48C83000F0EF
:1003A00013F8641CE4B2322CF5D370BD16000020A3
:1003B0009C0300202E2E5C4170705C685F6164635A
:1003C0002E630000C200002070B500220446228087
:1003D000531EA380E38810465B001B191981E18836
:1003E000491C89B2E180322900D3E080002041001D
:1003F00009190B892588AB4200D923800B89A58870
:10040000AB4200D2A3800989401C8A18C0B23228AE
:10041000EDD332211046FFF763FE608070BD10B54A
:1004200000F002F810BD0000F8B531480024C17892
:100430000578304E10E02F4B0A211E339F5C8378E5
:10044000F7545B1C83702B4B1E339C54521CD2B24E
:1004500042701E2A00D3447042789542EBD1C1709D
:10046000002942D0491E0906090EC17011D1327807
:100470003146422A08D14A78302A05D18A78302A72
:1004800002D1CA78352A05D084701E211948FFF799
:1004900058FEF8BD31791848022530290DD0312990
:1004A00018D0322918D0332918D0342919D0352939
:1004B00019D03629EDD1062111E00470092001215F
:1004C000C00600F0BDFC0D49012801D00C70F8BD3C
:1004D0000D70F8BD012102E00570F8BD0321017027
:1004E000F8BD0421FBE70521F9E78470F8BD0000A1
:1004F00011000020680000200D0000200C000020EA
:1005000010B5034800F048FB02490120087010BDF7
:10051000580400201600002010B504460068054964
:1005200040181421FFF7DCFD800020640248E063DE
:1005300010BD0000F8FFFDBF0000024030B5056CA3
:100540000124AC40C56B6C60046863604368102B89
:10055000036803D099600068C26030BD9A6000688B
:10056000C16030BD01E0401EC0B20028FBD1704721
:1005700010B51448007800280ED001280FD00228AA
:1005800010D0032813D0042816D0052817D0062829
:100590000CD102F0D5F807E001F0EEFC04E001F028
:1005A000A9FD06E002F074F801F02AFB10BD00F08E
:1005B0000BF801F04BFB10BD01F01CFCF4E702F05E
:1005C000B5F8F1E70D00002070B514480178491C1A
:1005D000C9B20170827891421ED300210170427825
:1005E000521CD2B24270712A00D3417040783C2232
:1005F00050430B4A00210B4B84188A008D180020B1
:100600006219ED18165C2E54401CC0B20528F9D3AF
:10061000491CC9B20C29F0D370BD00005D00002058
:10062000643E00086802002010B500241021044830
:1006300000F006FC002800D10224204610BD000076
:1006400000040048F8B505460446403528780026E1
:10065000012808D001202870206881688907890F47
:10066000012908D101E00220F8BD0168C90738D18D
:10067000C168090435D4616CFF2201329143022222
:1006800011436164C1688907890F0091C1688908B5
:100690008900C1602068816892071143816000F081
:1006A000DBFB07460EE000F0D7FBC01B022809D990
:1006B000606C022188431021084360640020287088
:1006C0000120F8BD206880680028ECDB2068C16844
:1006D000009A1143C160606C80088000401C606417
:1006E00004E0606C2021084360640126002028702B
:1006F0003046F8BDF8B50025044640340095227810
:10070000012A39D00122227003689E68760767D4D7
:10071000384F4E68BE424DD09E6A0F78BA4016439D
:100720009E620123826B1B079A421FD0012A1DD0B3
:10073000022A1BD0032A19D0042A17D0052A15D063
:10074000062A13D0072A11D002688B6856697607EB
:10075000760FB3420AD05369DB08DB0053610068AF
:1007600042690B7A5B075B0F1A4342610A68102AE1
:1007700004D0112A02D038E00220F8BD1E48836858
:10078000102A07D0012292051343836008681028BD
:1007900003D02AE00122D205F6E71948174900687C
:1007A000FFF79EFC0A21484300E0401E009000280D
:1007B000FBD11AE0986A0E78B240904398620968BB
:1007C000102901D0112910D10B488268102904D0BA
:1007D000012189058A43826007E00121C905F9E703
:1007E000416C2022114341640125002020702846DD
:1007F000F8BD0000011000000027014040420F003A
:10080000640000207047704770470000F8B500256D
:100810000446002803D0606C002802D008E00120C4
:10082000F8BD0020A06440210855204600F0A8F83B
:10083000606C1022C006002870DB206881684907C0
:100840006CD4616C1301994302231943616481687C
:100850008907890F012905D10168C9070FD1C1682E
:1008600009040CD4C16818239943A3681943C160D3
:10087000206801696368890089081943016120685B
:10088000C1683D4B1940C160A069E1698003C9039B
:100890000843216A4B031843636B012B02D00123E9
:1008A0001B0300E000231843E36818432369022B6D
:1008B00009D000231843236B666A5B0018430123A9
:1008C000012E02D00AE00423F4E7002927D0616C4E
:1008D000202631436164A16C1943A164A16A0E46CC
:1008E000FF3EC23E02D0E66A314308432168CE682B
:1008F0000643CE600126A16B3607B14213D0012911
:1009000011D002290FD003290DD004290BD00529BD
:1009100009D0062907D0072905D010E028E00121D9
:1009200009040843DAE721684E69F608F6004E61CB
:1009300021684E69278F7F077F0F3E434E612168F4
:10094000C9680E4E3140814207D10020A064606C1E
:1009500080088000401C606408E0606C02218843CD
:1009600010436064A06C1843A06401252846F8BDBC
:10097000606C10436064F8E71902FEFFE7FF3F83F5
:1009800070B506460068184986B088422AD11748D3
:10099000826941150A4382618069002508400590FB
:1009A0000220009003200190092069460295C006AC
:1009B00000F0A2F90E480F4C21C480202560606031
:1009C0004000A060256180006561E0600948083C46
:1009D00000F030F9002803D0682107A001F01CFEC8
:1009E000F463666206B070BD00240140001002404E
:1009F00008000240580400202E2E2F5372632F73DC
:100A0000746D3332663078785F68616C5F6D7370D7
:100A10002E630000F7B50446006800258068400793
:100A20003DD426464036307801280AD00127377059
:100A3000E069012807D02046FFF744FC050002D0FA
:100A40002EE00220FEBD606C16490840FF210131F6
:100A5000084360640020A0643070E16B1248886233
:100A6000E16B1248C862E16B1148086321681C20E1
:100A70000860206841681022114341602068C16805
:100A80003943C1602168E06B4031029B019A00F05C
:100A9000FDF82068816804221143816000E002258E
:100AA0002846FEBDFEF1FFFFCF01000855020008F9
:100AB0003B020008F8B50646044640363078012867
:100AC00007D0012737702046FFF758FB050002D0FA
:100AD00024E00220F8BD2068C16849084900C160CF
:100AE000E06B00F01FF8050003D0606C4021084364
:100AF000606420684168102291434160002D2046C7
:100B000002D0FFF7ACFB09E0FFF7A9FB050005D118
:100B1000606CFF21013188433843606400203070ED
:100B20002846F8BD01680A680E239A430A600168E6
:100B30000A68520852000A600121036C0A469A4072
:100B4000C36B5A6020304170002101700846704725
:100B500070B50024014620314A78022A03D00421CE
:100B60008163012416E0026813680E25AB4313600D
:100B7000026813685B085B0013600122056C134672
:100B8000AB40C56B6B604A7000220A70416B002954
:100B900000D08847204670BDF0B4C16B0D68016875
:100BA0000C680422066C1346B3402B420DD0630739
:100BB0000BD50B689B0602D40B6893430B60016C4A
:100BC0008A40C16B4A60C16A19E00227B7400246F9
:100BD0002F4001232032002F15D0A70713D50C6812
:100BE000A40604D40C680A25AC430C605370036C53
:100BF00002219940C36B596000211170816A00295C
:100C000016D0F0BC08470827B7402F4210D0240761
:100C10000ED50C680E25AC430C60046C1946A1403F
:100C2000C46B61608363537000211170016BE6E750
:100C3000F0BC704770B5040024D00220214620315A
:100C40000D464870226811680F48A368014060682B
:100C500026691843E3683343184363691843A3695B
:100C60001843E3691843084310602046FFF754FC1B
:100C70000020A062E06220636063A06301216970CC
:100C8000287070BD012070BD0FC0FFFFF8B504468D
:100C90008C46203001780025012909D001260670F4
:100CA00041780027012905D0077002252846F8BDA4
:100CB0000220F8BD02214170A7632068016849083D
:100CC0004900016061462046FFF738FCE06A0028D1
:100CD0002068016802D00E22114306E00A22114367
:100CE0000160206801680422914301602068016866
:100CF00031430160DAE70000F8B500238DE00124FC
:100D00009C40A44622407DD04C68022C01D0122C7D
:100D10000CD1DC08A40027183C6A5D07ED0E0F26F5
:100D2000AE40B4430E69AE4026433E6205685E00A5
:100D30000324B4400F79A543BF07BF0FB7402F432B
:100D400007604D68012D05D0022D03D0112D01D073
:100D5000122D0ED18568CF68A543B7402F43876019
:100D600047686546AF430D79ED06ED0F9D403D4365
:100D70004560C568A5438C68B4402C43C4604C688A
:100D8000E40049D5284CA56901263543A561A4692D
:100D90009D0834400094254CAD002F19BC689D0778
:100DA0002E0F0F25B540AC430925ED06A84201D111
:100DB00000250FE01E4DA84201D101250AE01D4D7E
:100DC000A84201D1022505E01B4DA84201D103250F
:100DD00000E00525B5402543BD60184C25684E68E8
:100DE0009543F60300D51543256065684E68954325
:100DF000B60300D515436560A5684E689543F602B5
:100E000002D500E008E01543A560E5684E6895430B
:100E1000B60200D51543E5605B1C0A681446DC4049
:100E200000D06CE7F8BD0000001002400000014057
:100E30000004004800080048000C0048000401407D
:100E40000069084000D001207047002A01D081616C
:100E500070478162704700000148006870470000D9
:100E60000000002002480168491C01607047000032
:100E70000000002010B506480168102211430160EF
:100E8000002000F007F800F017F8002010BD000067
:100E90000020024010B5044600F042F97D21C9004F
:100EA000FFF71EF900F046FB00222146501E00F01D
:100EB00029F8002010BD000008B50C488169012206
:100EC0001143816180691040002200901146501F3B
:100ED00000F018F800221146901E00F013F80022CE
:100EE0001146501E00F00EF808BD00000010024030
:100EF000C106C90E01208840014908607047000002
:100F000000E100E010B501F015F810BDF8B5054698
:100F10000068354CC00352D5E0690026C00007D4F4
:100F2000E16920040143E161E1690140012600918A
:100F30002E480168C90510D401688215114301606B
:100F4000FFF78AFF074604E0FFF786FFC01B64280F
:100F500024D826480068C005F6D5206A03273F023A
:100F6000384020D06968394081421CD0206A226A0A
:100F7000B843012109040A432262226A8A43226299
:100F80002062C0070FD0FFF767FF009008E0FFF76F
:100F900063FF0099411A1648814201D90320F8BD28
:100FA000206A8007F3D5206A6968B8430843206245
:100FB000002E04D0E169012000078143E161287817
:100FC000C00705D0206BA968800880000843206313
:100FD0002878800605D5206B10218843E9680843EE
:100FE00020630020F8BD00000010024000700040A7
:100FF00088130000F8B5054644480E460068C0074F
:10100000C00FB0420AD24148016849084900314343
:1010100001600068C007C00FB0425CD128783C4C2A
:10102000800705D56068F0218843A968084360609F
:101030002878C0073FD06868012813D021680228AB
:1010400013D08907002946DA6168890889000143BD
:101050006160FFF701FF6968074601290DD0022989
:1010600017D024E021688903ECE78901EAE7FFF75C
:10107000F3FEC11B2748814217D860680007800F24
:101080000128F4D117E0FFF7E7FEC11B2148814298
:101090000BD860680007800F0228F4D10BE0FFF73F
:1010A000DBFEC11B1B48814201D90320F8BD6068EB
:1010B0000007800FF3D115480168C907C90FB14275
:1010C0000BD9016849084900314301600068C00735
:1010D000C00FB04201D00120F8BD2878400706D5E6
:1010E0006068072109028843E9680843606000F0EE
:1010F0002DF86168084A0906090F515CC840074984
:1011000008600020FFF7C6FE0020F8BD0020024066
:101110000010024088130000606F00086400002087
:101120000148006870470000640000200448054939
:1011300000684968044A4905490F515CC840704736
:101140006400002000100240706F000810B512A368
:101150000FCB88B06C460FC413A30FCB0FC4164936
:101160004A680C20134603401448042B0FD0082B68
:101170000DD193021B0F6C46E45CC96A04AB0907EE
:10118000090F595CD20304D5FEF7AAFF604308B0EB
:1011900010BD0B486043FAE702030405060708097F
:1011A0000A0B0C0D0E0F10100102030405060708B0
:1011B000090A0B0C0D0E0F100010024000127A00ED
:1011C00000093D00FEB504460078D04DC00747D069
:1011D00068680007800F012807D068680007800F43
:1011E000022809D16868C00306D52868800337D56E
:1011F000606800287ED033E0012062680004012A84
:1012000011D08100002A01D0052A10D02A6882431B
:101210002A602868884328606068002814D0FFF797
:101220001BFE06460CE0296801432960F4E72A68A2
:101230000A432A60F7E7FFF70FFE801B64286FD888
:1012400028688003F7D50BE0FFF706FE064604E0AA
:10125000FFF702FE801B6428F1D828688003F7D4CA
:1012600020780126800700283BDA68680007800F95
:1012700007D068680007800F022809D16868C0039A
:1012800006D42868800715D5E068012832D111E01E
:10129000E0680028286815D030432860FFF7DCFD9F
:1012A000074604E0FFF7D8FDC01B0228C7D828680E
:1012B0008007F7D52868F82188432169C9000843C9
:1012C00028600EE0400840002860FFF7C5FD074693
:1012D00004E0FFF7C1FDC01B0228B0D828688007D2
:1012E000F7D42078000724D5E0690028686A10D078
:1012F000304300E008E16862FFF7AEFD074604E016
:10130000FFF7AAFDC01B022899D8686A8007F7D5A5
:101310000FE0400840006862FFF79EFD074605E0C9
:101320009DE0FFF799FDC01B022888D8686A8007F6
:10133000F7D4207804274007002860DA00200190C5
:10134000E869C00008D4E969B8060143E961E969C0
:1013500001400120009101906D480168C90511D438
:101360000168821511430160FFF776FD009005E0EA
:10137000FFF772FD0099401A642870D8644800682D
:10138000C005F5D5A06801280AD0002801D005289D
:1013900010D0286A400840002862286AB84301E05B
:1013A000286A30432862A068002812D0FFF754FD55
:1013B00000900AE0286A38432862F1E7FFF74CFD05
:1013C0000099411A5348814249D8286A8007F5D5C7
:1013D0000DE0FFF741FD009006E0FFF73DFD0099AD
:1013E000411A4C4881423AD8286A8007F5D40198BE
:1013F000002804D0E969012000078143E9612078D1
:10140000C00635D5606901280CD0401D686B23D01B
:1014100038436863686B400840006863FFF71CFD51
:10142000064622E0686B38436863686B3043686344
:10143000FFF712FD064604E0FFF70EFD801B0228B1
:101440005BD8686B8007F7D5686BF8218843A16982
:10145000C900084368630BE0B8436863F4E74CE0F5
:10146000FFF7FAFC801B022847D8686B8007F7D487
:10147000206A002846D069680907890F022943D0ED
:10148000012636060228286805D0B0432860FFF7F9
:10149000E3FC044633E0B0432860FFF7DDFC074679
:1014A00004E0FFF7D9FCC01B022826D82868800179
:1014B000F7D4E86AE16A000900010843E862616A5A
:1014C000A06A084369683D2212049143084368609A
:1014D000286830432860FFF7BFFC044604E0FFF7AC
:1014E000BBFC001B022808D828688001F7D509E05A
:1014F000FFF7B2FC001B022801D90320FEBD2868BB
:101500008001F5D40020FEBD0120FEBD0010024088
:101510000070004088130000042204490428086970
:1015200002D09043086170471043FBE700E000E001
:1015300070470000094910B5401E884201D90120BA
:1015400010BD074C60610321081F00F0F3FC002070
:10155000A06107202061002010BD0000FFFFFF00F8
:1015600000E000E010B5FFF7E3FF10BD70B50446E2
:1015700060300546407A21280FD12068816809062D
:101580000BD58168802291438160206E002801D0B4
:10159000FFF7C8FA204600F013FFA87A22280FD1DF
:1015A0002068816849060BD581684022914381609B
:1015B000606E002801D0FFF7B5FA204600F0E4FE87
:1015C000002070BD70470000F8B503680446D96973
:1015D00018680D072D0F07D18A0605D5820603D599
:1015E000204600F0F6FEF8BD9A68002D64D0D507BD
:1015F000ED0FFF26213606402E435DD0CE0706D0E4
:10160000C60504D501261E62E36E3343E3668F07E9
:1016100002230426002F06DAD70704D027683B628E
:10162000E76E3743E7664F0706D5D20704D0226836
:101630001662E26E1A43E2660A0709D520220240CA
:101640002A4305D0236808221A62E36E1343E36637
:10165000E26E002AC7D0890604D5800602D520464E
:1016600000F0B7FEE06E000703D4206880684006F3
:101670001CD5204600F088FE20688168490611D5F7
:101680008168402291438160606E00280AD012492F
:101690004163606EFFF75CFA0028A4D0606E416B76
:1016A0008847F8BD2046FFF78DFFF8BD2046FFF7BD
:1016B00089FF0020E066F8BD0A0605D5020603D5BD
:1016C000204600F039FFF8BD4906FCD54006FAD5A2
:1016D000204600F068FEF8BD7523000870B50400D0
:1016E00005D025466035687A002802D006E0012042
:1016F00070BD00202872204600F026F82420687271
:1017000020680168490849000160204600F08AFE0F
:101710000128EDD0606A002802D0204600F0BCFD10
:10172000206841680122D2029143416020688168AB
:101730000822914381602068016801221143016001
:10174000204600F00EFE70BD00B50068124987B05B
:1017500088421FD111488269012189030A438261AD
:101760008069084005900C20009002200190002024
:101770000290032003900120049009206946C006CE
:10178000FFF7BAFA002211461B20FFF7BBFB1B2014
:10179000FFF7AEFB07B000BD00380140001002406B
:1017A00070B5034660339C7A202C39D100290BD0C8
:1017B000002A09D0012584682D03AC4206D10669B0
:1017C000002E03D1CE0701D0012070BD1E7A012E5C
:1017D00026D001261E724165014640310A834A83A4
:1017E000FF22AC4204D10469002C07D10D4A05E068
:1017F000002C04D10469002C00D07F228A830021B0
:10180000C16622229A72197201688A6832438A601C
:1018100000680168FF22213211430160002070BD81
:10182000022070BDFF01000030B5034660335C7AD2
:10183000202C23D100290BD0002A09D0012584684F
:101840002D03AC4206D10469002C03D1CC0701D092
:10185000012030BD1C7A012C10D0C16401464031FA
:101860000A824A820021C16621225A7219720068D6
:101870000168802211430160002030BD022030BD8C
:101880007047FEE70920C0060168032292029143D7
:101890000160016801229202114301600168032284
:1018A0001203914301600168012212031143016098
:1018B00001680322920391430160016801229203AF
:1018C0001143016001680322120491430160016821
:1018D00001221204114301602021816140218161B4
:1018E000802181614900816101490120886170473F
:1018F00000040048F0B50921002220264027C9062F
:10190000104D03460124180606D58E618F61802094
:1019100088614000886105E08E628F628020886265
:10192000400088620020FEF71DFEAC610020FEF73B
:1019300019FE5806030EAC62521CD2B2082AE2D33A
:10194000F0BD000000040048F0B5184A0921131842
:10195000184A002412188027C9060125144E203A7F
:10196000203BD07F000603D58F612020886102E0F4
:101970008F6220208862D87F00060F4803D58861D7
:101980004020886102E08862402088620020FEF7E3
:10199000E9FDB561D07F4000D077D87F4000D8778F
:1019A000B562641CE4B2082CDBD3F0BD2C0300202C
:1019B00000040048080300200001000000B5FFF704
:1019C00061FF20210920C0068162402181628021BF
:1019D0008162490081620020FEF7C4FD01490120B7
:1019E000886200BD0004004870B520220921C906A4
:1019F0008A6240238B6280248C62D5008D62002035
:101A0000FEF7B0FD054E0120B0610020FEF7AAFDF3
:101A10008A618B618C618D6170BD0000000400489B
:101A200000B5044901228A610020FEF79BFD8A620D
:101A3000002000BD00040048F8B5394C0025A0780E
:101A4000384E00284AD0384F3878002801D101207C
:101A500038702079422802D0C2283FD135E0314881
:101A600039780078022902D0012915D01AE0401CEB
:101A7000C0B23070062801D9357001E0002811D1BC
:101A800009200121C006FFF7DBF9002802D002205F
:101A9000387007E03D7005E0002801D03570F9E7A7
:101AA0000120307021480121017022894B21C90099
:101AB0008A4217D10570258130780621484318499C
:101AC0000A31401800F074FD08E0E079322805D2B0
:101AD00017480178012919D00121017013480078B5
:101AE000002815D02089401C81B24B20C0002181E4
:101AF00081420AD90D480621057025813078484376
:101B000007490A31401800F053FDF8BD0321E4E70E
:101B100020894B21C9008842F7D2401C2081F8BDA2
:101B2000200000200D0000200C00002010000020EC
:101B30000A00002070B52E4900228A700B7883427B
:101B400001D0087070BD2A4C4878E6786579012488
:101B5000834230D10028F5D08A79002AF2D0521E73
:101B60001206120E8A71EDD10871002E00D18C7010
:101B7000002D12D01422012D16D0022D01D0032DDC
:101B8000E0D103234B718023184308718A71C8790F
:101B9000FA28D7D2401CC87170BD20224C71104366
:101BA00008713220887170BD02234B716023184385
:101BB00008718A7170BD002813D00871002E00D101
:101BC0008C70012D08D00A48C02440782043022D93
:101BD00004D0032D03D101E04024204308714A7151
:101BE00001E0CA70CA71052088714B7070BD000099
:101BF0002000002010B5FEF717FDFFF79BFF10BD7A
:101C0000F0B50E4C0E4D00200A220E4E42431346F4
:101C100096190D4A00219B18725C5F5C242A01D240
:101C2000A75402E0AA18403A1777491CC9B20A29FA
:101C3000F2D3401CC0B20628E6D3F0BD0803002052
:101C40002C030020302A00082C020020F0B50E4C96
:101C50000E4D00210E4A8B00CB189E180D4A002015
:101C60009B18325C1F5C242A01D2A75402E0AA18F8
:101C7000403A1777401CC0B20528F2D3491CC9B2BC
:101C80000C29E7D3F0BD0000080300202C0300203E
:101C90006C2A0008680200203EB51C481A49016001
:101CA0004905416000218160C160012481610461B6
:101CB000C1610822046242614162FF22C162C232F4
:101CC000016382624163FEF7A1FD002800D0FEE7B8
:101CD00001200003019007200290009469460B4800
:101CE000FEF708FD002800D0FEE70848FEF7AAFC32
:101CF000002800D0FEE7322205490448FEF78AFE9C
:101D0000002800D0FEE73EBD002401409C030020D7
:101D1000C2000020F0B5254887B04269012149047E
:101D20000A43426142690A400592426949000A43F6
:101D3000426140691E4D08400926F60605900022C2
:101D400029463046FFF781F81A4F00220321384612
:101D5000FFF77BF81120002400900194694602945B
:101D60003046FEF7C9FF00950125029469463046CA
:101D700001950394FEF7C0FF03200090029469468A
:101D8000019503943846FEF7B7FF082000900194B0
:101D9000694602943846FEF7AFFF10206A4631C20A
:101DA00069463846FEF7A8FF07B0F0BD00100240B4
:101DB000E09F00000004004810B50D480B49016089
:101DC0004B21C901416000218160C16001618161D5
:101DD0000C22C161426101621021416209028163EA
:101DE000FFF77CFC002800D0FEE710BD0038014062
:101DF000E8030020F0B54848012282560021551C16
:101E0000464B474C002D05D04556AA4230DA217189
:101E10000F2035E000200A2500224543ED18A95483
:101E2000521CD2B20A2AFAD3401CC0B20628F2D3FE
:101E30002078002205463B4E9F18365C2037401C18
:101E4000C0B2BE740C2800D30020521CD2B20A2AA1
:101E5000F1D36078401CC0B26070322806D36D1C8C
:101E6000E8B2617020700C2800D321702171F0BDA0
:101E7000AA4202D121710A2002E00120207105202E
:101E8000A070E078401CC0B2E070A2789042EED31F
:101E9000E170207900281ED02148234B87793C200F
:101EA00000227843C4181D4D0A23534300205D19B6
:101EB000E3181E5C2E54401CC0B20A28F9D3521CF1
:101EC000D2B2062AEFD37F1C1548FAB28271372AA4
:101ED000CDD38171F0BD124A144C57793C220020B9
:101EE0007A4314190A2343431E460C4D0022A319BA
:101EF00075199E5CAE54521CD2B20A2AF9D3401C0A
:101F0000C0B20628EED37F1C0548FAB242711D2AE2
:101F1000E0D34171F0BD00001A0000202C02002027
:101F200056000020583E0008A82A00088C370008F8
:101F3000704700008307FF22DB0E9A408907090ED5
:101F4000994000280BDA0007000F0838830808487A
:101F50009B001818C36993430B43C3617047830800
:101F600004489B001B18186890430843186070478A
:101F700000ED00E000E400E070B50B4B00201E46D1
:101F800002463C360A244443E51884000021041923
:101F9000A4196A546254491CC9B20A29F9D3401CD5
:101FA000C0B20628EED370BD2C020020704700009E
:101FB00010B501220920D103C006FEF746FF0748ED
:101FC000022181710721C171002141720121017239
:101FD0001E2203490348FFF7E3FB10BD0400002065
:101FE00086000020E803002010B500F007F8024842
:101FF00000F01CF810BD000050030020002009492B
:1020000002460A54401CC0B24B28FAD3064A262086
:1020100012780A54401CC0B24A28FAD30120087032
:1020200070470000500300200B00002070B50546EB
:10203000FFF7C4FC7820FFF75DFCFFF7F1FC002000
:10204000FFF758FCFFF7ECFC0024601E242803D2A5
:102050002046FFF779FC02E0285DFFF74BFCFFF715
:10206000DFFC641CE4B24B2CEFD3FFF7BDFC70BD6A
:1020700070470000F8B50926F60601213046FEF744
:10208000DFFE1A4C0025217888420FD0012130460E
:10209000FEF7D6FE207001213046FEF7D1FE002863
:1020A00002D00220207201E02572657210211048D2
:1020B000FEF7C6FE0127FF03002808D001213046A5
:1020C000FEF7BEFE002802D1207A002807D00122A8
:1020D00039463046FEF7B9FE207A002805D16572F0
:1020E000002239463046FEF7B0FEF8BD040000205D
:1020F0000004004870B514480178491CC9B2017049
:102100008278914208D3002101704278521CD2B2E9
:102110004270602A00D3417040783C2250430B4A01
:1021200000210B4D84188A008A180020A318521928
:102130001E5C1654401CC0B20528F9D3491CC9B214
:102140000C29F0D370BD000060000020E0580008AA
:102150006802002010B5FEF785FEFFF703FA11496B
:102160000120114A08701178491CC9B211700A295E
:1021700002D3002111700CE000290AD001290AD0F5
:1021800002290AD003290AD0052901D1074908707C
:1021900010BD0749FBE70749F9E70749F7E7074992
:1021A000F5E70000050000200E0000200F000020D1
:1021B0000600002007000020080000200900002081
:1021C00070B594B001251220059500901020049060
:1021D000069005200024C004039502260A90089664
:1021E00009940B946846FEF7EDFF002800D0FEE747
:1021F00007200C900E9401210D960F940CA8FEF769
:10220000F9FE002800D0FEE710A810951294FEF702
:102210007DFE002800D0FEE7FEF782FF7D21C90089
:10222000FDF75EFFFFF786F90420FFF775F900223E
:102230001146501EFEF766FE14B070BD13480168CB
:102240000122114301604168114A11404160016857
:10225000104A11400160016801229204914301601B
:1022600041683F22120491434160C16A0909090192
:10227000C162016BFF22143291430163416B490833
:102280004900416300218160704700000010024056
:102290000CB8FF08FFFFF6FE10B5818CC90707D008
:1022A00001684A6801235B049A43836A1A434A60BF
:1022B000818C890707D501684A6801231B049A436A
:1022C000C36A1A434A60818C490707D501684A6886
:1022D00001239B049A43036B1A434A60818C0907CC
:1022E00007D501684A680123DB039A43436B1A430D
:1022F0004A60818CC90607D50268916801231B03D7
:102300009943836B19439160818C890607D50168D5
:102310008A6801235B039A43C36B1A438A60818CEA
:10232000490612D503685A6801210905046C8A43DD
:1023300022435A60026C8A4207D102685168032323
:102340005B059943436C19435160818C090607D59D
:1023500001684A680123DB04806C9A4302434A60A7
:1023600010BD0021C166202260304272827201726B
:102370000846704710B5406A0022014640314A8342
:102380004A82FFF71FF910BD01680A68FF23213355
:102390009A430A6001688A68520852008A602021C4
:1023A00060308172704710B501680A6840239A4313
:1023B0000A60202269210A54FFF762FA002010BD4A
:1023C00001680A68C0239A430A6020216030417284
:1023D000704710B504464030818B6A20005D22288A
:1023E00009D0204600F000F92068816908221143D5
:1023F0008161022010BD2068828C0123A0681B032C
:10240000984202D12069002804D0204600F0ECF860
:10241000002010BD606D0A400280606D801C606508
:10242000F6E70000F8B504462369A268E6691A4396
:10243000636910213343002026681A433368054638
:10244000394F3B401343336023685A6803263603F1
:10245000B243E66832435A60236AA26926681A4387
:10246000B3680B273F02BB431343B3602F4A126B81
:102470009207920F06D0012A08D0022A08D0032A18
:1024800007D101E0002104E0022102E0042100E084
:1024900008210122E369D203934224D100290CD000
:1024A00002290DD0042913D0082917D001250109CC
:1024B00009010007400F084332E0FEF737FE09E04C
:1024C00061681B4A48088018FDF70AFE80B2EEE7F3
:1024D000FEF73CFE616840004A08F4E761680122AB
:1024E00048081204EFE7002908D0022909D004297E
:1024F0000BD008290ED001252846F8BDFEF716FEA0
:1025000005E061680B4A480806E0FEF71FFE6168B7
:102510004A0801E0616848088018FDF7E1FD80B2D3
:102520002168C860E8E70000F369FFFF001002407F
:102530000024F40000127A006921095C212901D0ED
:102540000220704702464032518A002912D00123EE
:1025500081681B03994202D10169002915D0C16C21
:102560004B1CC364006809780185508A401E508264
:102570000020704701680A6880239A430A60006857
:102580000168402211430160F2E7C16C03680988C9
:10259000C905C90D1985C16C891CC164E5E7000036
:1025A00010B50248FFF710F810BD0000E803002046
:1025B00070B5054600240A48FEF7D8FF094903E034
:1025C0000855641CE4B26D1C28780A2801D0002844
:1025D000F6D1224603490248FFF726F970BD0000F4
:1025E000E8030020A40000205C21095C0068828CC4
:1025F00008480A40064B01785A54491CC9B2017078
:102600001E2901D3002101700A21C17000207047EA
:102610008600002011000020FEE702E008C8121F1B
:1026200008C1002AFAD170477047002001E001C1BB
:10263000121F002AFBD17047FFF7BAFC134D00248C
:102640006878002807D06C70FDF77EFE072000F048
:1026500099F9FFF70FFDA878002804D0AC70FFF7B8
:10266000C9FAFFF7E9F9E878002802D0EC70FDF725
:10267000D6FE2879002802D02C71FDF779FF687901
:102680000028DDD06C71FFF7AFFCD9E70400002013
:10269000F0B5134F3878401CC0B2387014281ED3E0
:1026A0007A783C210F4B00205143CC180A23434336
:1026B0001E460D4D0021A31975195E5C6E54491C10
:1026C000C9B20A29F9D3401CC0B20628EED3521C65
:1026D000D1B200207970372900D378703870F0BDFE
:1026E00054000020A82A00082C02002008B5FEF79C
:1026F000C1FBFFF765FDFFF70DFB0B4841690122A8
:1027000011434161406910400022009011460920A8
:10271000FEF7F8FB0920FEF7EBFBFFF7BDFAFFF72A
:102720004BFBFFF789FFFEE70010024010B50024C5
:10273000204600F0A7F8641CE4B20A2CF8D310BDC0
:1027400070B500240F4D052603212046FDF7C8FC77
:10275000002913D00020311A0A22514349190A19BD
:10276000203A401CD27FC0B20A550628F3D300F0AD
:1027700043F9641CE4B20A2CE6D370BD204600F095
:1027800081F8F6E7A4020020F8B51A4C7E22D24365
:1027900022717F226271271F0146174E7A7800202E
:1027A000B1546170521CD5B27D7001460EE0042315
:1027B0007256E3569A4200DD22710523E3569A428F
:1027C00000DA62711018491C00B2C9B2A942EED3F6
:1027D0002946FDF79BFC20700A2D09D300200649ED
:1027E00078700A31325C0A54401CC0B20A28F9D30E
:1027F000F8BD00001A0000200402002010B5054BAF
:1028000000220A245443E418521CD2B22154062A4E
:10281000F7D310BDA402002030B50E4900250B5699
:102820000D490E4A4D5741008C180D498000411842
:10283000012020560722C01AAB4205DA002800DA30
:102840004042101AC20002E0002800DA4042101A8A
:10285000488030BD0E0200201A000020180200201F
:10286000E00200200188491C89B20180428891421F
:1028700002D30021018003E0002901D0012070472C
:1028800000207047F0B504463B483C4B0257A0007F
:10289000511CC518002963D0394867003E18012132
:1028A000C35771568B4226DA8A4205DD2046FFF770
:1028B000B3FF3148005D70702846FFF7D3FF002852
:1028C00018D12F482D4AC15D491C49B2C15500207D
:1028D0003C3A814201DD012300E000231D02EB1A96
:1028E0000A254543AD18401CC0B22B550628F0D32D
:1028F00000F082F8F0BD8B4224DD8A4205DA2046E2
:10290000FFF78AFF1C48005D70702846FFF7AAFF9A
:102910000028EFD11A48194AC15D491E49B2C15574
:1029200000203C3A814201DD012300E000231D022A
:10293000EB1A0A254543AD18401CC0B22B5506289A
:10294000F0D3D5E72046FFF767FF0B48012100577A
:102950007156884202D10628CCD1C01E7070F0BDDD
:102960002846FFF77FFF0028F9D1102068800F214B
:102970002046FFF743FFBBE70E020020E0020020E5
:1029800018020020F8B50546184846881848202E39
:102990000BD241887D221201914202D90020C0430E
:1029A0001BE0491C4180002017E0002141806F1E80
:1029B000012438467843009014E020460D4A6043D5
:1029C00050430099FDF7A2FB0849203080B2620015
:1029D0006C318852B04203D360B2FFF7D5FEF8BD28
:1029E000641CA4B2AC42E8D378B2F6E78A010020B6
:1029F00016000020DF0F0000F0B500200A4B0B4F3F
:102A00000522141A0A256C430021E4184543ED19E8
:102A1000665C6E54491CC9B20A29F9D3401CC0B285
:102A20000628EED3F0BD0000A40200202C020020F6
:102A30003A3B2E2F222316170A0B38392C2D202132
:102A40001415080936372A2B1E1F121306073435B2
:102A500028291C1D10110405323326271A1B0E0FBE
:102A600002033031242518190C0D00013B2F2317C8
:102A70000B3A2E22160A392D211509382C2014085C
:102A8000372B1F1307362A1E120635291D11053450
:102A9000281C100433271B0F0332261A0E0231257F
:102AA000190D013024180C00000000000000000087
:102AB0000000000000000000000000000000FF0017
:102AC00000000000FF00FFFFFFFFFFFFFFFFFFFF11
:102AD000FFFFFFFFFFFFFFFFFFFFFFFFFFFFFFFF06
:102AE000FFFFFFFF000000000000000000000000EA
:102AF00000000000000000003F7FFF7F000000009A
:102B0000FF007FFFFFFFFFFFFFFFFFFF7FFFFFFFD4
:102B1000FFFFFFFFFFFF7F7FFFFFFFFFFFFFFFFFC5
:102B2000000000000000000000001F1FFF00000068
:102B3000FF1FFF003FFFFFFFFFFFFFFFFF3F7FFF84
:102B4000FFFFFFFFFFFFFFFF7FFFFFFFFFFFFFFF15
:102B5000FFFF7F7F7F7F7F7F7F7F7F7F00001F0062
:102B6000000000005F001F7FFFFF7F005FFFFF1F6F
:102B70003FFFFFFFFF7F7FFFFF3F7FFFFFFFFFFF65
:102B8000FFFFFF7F7F7F7F7F7F7F7F7F7F7F0F0FB5
:102B90000F0F0F0F0F0F0F0F0000000000000000BD
:102BA000000000005F0000000000FF003FFFFFFF8B
:102BB000FF003FFFFF3F7FFFFFFFFFFF7FFFFF7F24
:102BC000FFFFFFFFFFFFFFFFFFFF7F7F7F7F7F7F15
:102BD0007F7F7F7F000000000000000000000000F9
:102BE0000F000000000000000F3FFF5F000000002A
:102BF00000007FFFFF7FFF007F3FFF00FFFFFFFF21
:102C0000FFFFFFFFFF7FFFFFFFFFFFFF7FFFFF7F54
:102C100000000000000000000000000000000000B4
:102C2000000000007F1FFF00000000007F007FFF0A
:102C3000FFFF5F007FFF7F7FFFFFFFFFFFFFFFFFC3
:102C4000FF7FFFFFFFFF7FFF7FFFFF7F0000000090
:102C50000000000000000000000000000000000074
:102C60000000FFFFFF000000FF007FFFFF7F7F7F6E
:102C70007FFFFF7FFFFFFFFFFFFFFFFFFF7FFFFFE4
:102C8000FFFF7FFF7FFFFF7F0000000000000000CC
:102C9000000000000000FF007F0000000000FFFFB8
:102CA000FFFFFFFF7F000000FF7F7F7FFFFFFF0030
:102CB000FFFFFFFFFFFFFFFFFF7FFFFFFFFF7FFF24
:102CC0007FFFFF7F00000000000000000000000008
:102CD0007F00FF007F0000000000FFFFFFFFFFFFFD
:102CE000FF000000FF7F7F7FFFFF7F00FFFFFFFFF0
:102CF000FFFFFFFFFF3FFFFFFFFF7FFF7FFFFF7F24
:102D000000003F3FFF3FFF3F0000000000FFFFFFCC
:102D1000FF7F0000000000FFFFFFFFFF3F000000FB
:102D2000FF7F7F7F7FFFFF0F0FFFFFFFFFFFFFFF93
:102D3000FF7F003F3F3F3F7F3F7F7F3F3F3F3F0061
:102D400000003F3F3F00000000FFFFFFFF7F00004B
:102D5000000000FFFFFFFFFF3F000000FF7F7F7FBD
:102D60007FFFFF3F3FFFFFFFFFFFFFFFFF7F003FB2
:102D70003F3F3F7F3F7F7F3F0000000000001F1F5D
:102D80001F003F00003F3F3FFF7F3F1F3F0000FF0E
:102D9000FFFFFFFF3F3F1F00FF7F7F7F7FFFFF3F62
:102DA0003FFFFFFFFFFFFFFFFF7F003F3F3F3F7FF2
:102DB0003F7F7F3F00000000000000000000000097
:102DC00000001F0F3F0000000000FFFF7F7F7FFF1C
:102DD0003F003FBFFFFFFFFFFFFFFF0FFFFFFFFFB2
:102DE000FFFFFFFFFFFFFFFFFFFFFFFFFFFFFFFFF3
:102DF0000000000000000F0000000000FFFFFFFFC8
:102E0000FFFFFF001FFFFF7F7F7F7FFFFF0F3FFF61
:102E1000FFFFFFFFFFFFFF7F7FFFFFFFFFFFFFFFC2
:102E2000FF3FFFFFFFFFFFFFFFFFFFFF000000006E
:102E3000000000000000FF1F7F000000FF000000F6
:102E4000FF7FFF7F7F7FFFFFFF00FFFFFFFFFFFF91
:102E5000FFFFFF7F7FFFFFFFFFFFFFFFFF3FFFFF42
:102E6000FFFFFFFFFFFFFFFF0000000000007F7F6C
:102E70007F0000007F7F7F00FFFF7F00FF7FFF7FDD
:102E80007F7FFFFFFF7FFFFFFFFFFFFFFFFFFF7F52
:102E90007FFFFFFFFFFFFFFFFF3FFFFFFFFFFFFF82
:102EA000FFFFFFFF0000000000007F0000000000A7
:102EB000FF7F7F7FFFFFFF7F1FFFFFFFFFFFFFFF02
:102EC000FFFFFFFFFFFFFFFFFFFFFFFFFFFFFFFF12
:102ED000FFFFFFFFFFFFFFFFFFFFFFFFFFFFFFFF02
:102EE00000000000000000000000FFFFFF000000E5
:102EF000FF001F00FFFFFFFFFFFFFF7F7F7FFFFF40
:102F0000FFFFFFFFFFFFFF7FFFFFFFFFFFFFFFFF51
:102F1000FFFFFFFFFFFFFFFFFFFFFFFF00007F1F1F
:102F20005F00000000001F7FFFFFFFFFFF000000A9
:102F30007FFFFFFFFFFFFF7F3F00FFFFFFFFFFFF60
:102F4000FFFF7F00FFFFFFFFFFFFFFFFBF00FFFF4F
:102F5000FFFFFFFFFFFFFF00000000001F00000059
:102F600000000000BFBFFFFFFF0000001F7FFFFF4A
:102F7000FFFFFFFFBF00BFFFFFFFFFFFFFFFFF00DF
:102F8000FFFFFFFFFFFFFFFFFF00FFFFFFFFFFFF50
:102F9000FFFFFF0000000000000000000000000034
:102FA0003F3FFFFFFF0000000F3FFFFFFFFFFFFF5E
:102FB000FF007FFFFFFFFFFFFFFFFF7FFFFFFFFF20
:102FC000FFFFFFFFFF7FFFFFFFFFFFFFFFFFFFFF91
:102FD00000000000000000000000000000003F1F93
:102FE000FF1F7F000000BF7FFFFFFFFFFF7F0FBFBE
:102FF000FFFFFFFFFFFFFFFF7FFFFFFFFFFFFFFF61
:10300000FFFFBFFFFFFFFFFFFFFFFFFF000000000C
:10301000000000000000000000005F0FFFFFFFFF46
:103020000000BFBFFFFFFFFFFFFF007FFFFFFFFFAD
:10303000FFFFFFFF00FFFFFFFFFFFFFFFFFF00FF9E
:10304000FFFFFFFFFFFFFFFF000000000000000088
:103050000000000000000000000000000000BFBFF2
:10306000FF00FFFFFF00007FFFFFFFFFFFFFFF00EC
:1030700000FFFFFFFFFFFFFFFF0000FFFFFFFFFF5D
:10308000FFFFFF0000000000000000000000000043
:103090000000000000000000000000000000000030
:1030A0000000001FFFFFFF00FFFFFF0000FFFFFF0A
:1030B0007FFFFFFFFF001FFFFFFFFF1FFFFFFF1F3F
:1030C000000000000000000000007F7FFF00000003
:1030D000FF001F00FFFF0F5F3F1FFF1F7F7F0000EC
:1030E000000F7F7FFF7F3F7F0F000F5F3F7FFF7FDE
:1030F0003FFFFF000F3F3F7FFF7F3FFF00007F1F2D
:103100005F00000000001F7FFFFFFFFFFF000000C7
:103110005F0F3F7F7F7F1F0F3F005F0F1F3F3F1FEE
:103120000F000F003F1F1F1F1F1F00000000FFFFA9
:103130005F5FFFFF5F5F5F00000000001F00000097
:10314000000000003F3F3F3F3F0000001F3F5F5F28
:103150005F5F5F1F3F003F5FFFFFFFFF0F3F3F00CD
:10316000FFFFFFFFFF0F0F0F0F007F5F7F5F7F5F8E
:1031700000003F0000000000000000000000000010
:103180003F3F7F5F1F0000000F3F5FFF7F5F1F7F9C
:10319000FF003F7F3F1F1F1F1F0F3F7F5F7F3F1FAE
:1031A0000000000F3F7F5F7F5FFF7F001F7FFFFFFB
:1031B00000000000000000000000000000003F1FB1
:1031C0007F1F7F0000003F1FFF1F00005F7F0FBFBA
:1031D000BF3FFF0F00000FFF7FFFBF5F5F3F0F3F4D
:1031E000FFFFBFFFBFFFFF5FFFFFFFFF000000000B
:1031F000000000000000000000005F0F5F3F1F0F95
:103200000000BFBFFFFF7F5F3F3F0000005F7FFF09
:103210007F5F3FFF0000000F7FFF7F5F1FFF00FF0A
:103220005F0F7FFFFF5FFFFF000000000000000056
:103230000000000000000000000000000000BF1FB0
:103240001F005F5F5F00007F7F7F1F5F3F3F3F008A
:10325000005F5F7F1F3F0F0F3F00001F5FFF5F3F5B
:103260000F0F0F0000000000000000000000000031
:10327000000000000000000000000000000000004E
:103280000000001F7F3F7F00FF7F7F00007F7F7F68
:103290003F3FFFFFFF001FFFFF3F3F1F3FFFFF1F9D
:1032A000000000000000000000000000000000001E
:1032B0000000000000000000000000000000FF5FB0
:1032C000FF5FFF5FFF5FFF5FFFFFFFFFFFFFFFFF8E
:1032D000FFFFFFFFFFFFFFFFFFFFFFFF00000000FA
:1032E00000000000000000000000000000000000DE
:1032F000000000003F005F005F0000007F3FFFFF15
:10330000FFFFFFFF3F5FFFFFFFFFFFFFFFFF7FFFAD
:10331000FFFFFFFFFFFFFFFF0000000000000000B5
:10332000000000000000000000000000000000009D
:103330001F3FFF5FFF5F00003F1FFFFFFFFFFFFF1B
:10334000001FFFFFFFFFFFFFFFFF5F7FFFFFFFFF8C
:10335000FFFFFFFF00000000000000000000000071
:10336000000000003F005F0000000000003F3FFF42
:10337000FFFF00001F00000F3FFFFFFF003FFF1F88
:103380000000FFFFFFFF011FFFFFFFFFFFFFFFFF29
:10339000000000000000000000000000000000002D
:1033A0001F1FFF1F000000001F1FFF3FFFFF000047
:1033B0001F1F3F3FFFFFFFFF00007F7F7F0F0F3F7B
:1033C000FFFF0000FFFF0F00000FFFFF00000000E5
:1033D00000005F005F000000000000007F1FFF7F13
:1033E000000000001F1F7FFFFF7F0000001FFF7F06
:1033F000FF1F1FFF00001FFFFFFF000000FF000076
:10340000FFFFFFFF000000FF000000000F0F7F5FC5
:103410001F5F00001F0F1F7FFFFFFF7F00007F5F08
:103420007F7F7F3F3F3F00007F7FFFFF7F0F000FC9
:1034300000007F7FFF3F0F0000000000FFFF3F3FC5
:10344000FF0F0FFF0000001F7F1F7F1F0F1F0000D7
:103450001F5F7F3F1F0F005F00005F7F7F3F1F00E8
:10346000000000005F7F7F3F1F1F1F1F00007FFFC6
:103470007F3F3F3F3F3F0000FFFF7F7F7F7F7F7F9A
:1034800000000F3F3F3F1F00000000003F1F0000F3
:103490001F1F00000000FF3F001F3F5F00000000F3
:1034A0003F3F001F3F5F1F1F00001FFF1F3F5F5F69
:1034B0005F5F00001F1FFFFF5F5F5F5F007FFF5FB9
:1034C0001F0000000000005FFFFFFF1F1F00000043
:1034D000003FFFFFFF001F1F0F00001FFFFF000046
:1034E0005F5F1F1F000FFFFF00007F5F1F1F0000B7
:1034F0001FFFFFFFFFFFFFFF1FFF1F000000000077
:1035000000005FFFFF0F0F00000000003FFFFF1FE4
:103510001F00000000001F3F7FFFFF0000000000B1
:103520000FFF3F1FFF00001F1F1F00FFFFFFFF1FB8
:10353000FFFFFFFF3F000000000000000000FFFF52
:103540007F00000000000000FF3FFF0F0F000000A1
:1035500000003FFFFF3FFF0F0F000000FF0000FFD4
:103560003FFF0F0F00001F00001F3F3FFF3F000FF6
:103570001F001F1F000000000000FFFFFF000000F1
:1035800000000000FF3FFF000000000000003FFFC0
:10359000FF0F0F00000000003F0101FF1F0F0F0091
:1035A00000001F00001FFFFFFF0F0F013F3FFF0044
:1035B0003FFF000000005FFF3F0000000000000030
:1035C0001FFF1F00000000000000001F1F00000080
:1035D000000000001FFF3FFF0F0000000000FFFF82
:1035E000FFFFFF7F5F0001000000FF00FFFF7F0083
:1035F00000005FFFFF007F0000000000FFFFFF00F2
:10360000000000000000FFFFFF00000000000000BD
:10361000FFFFFF00000000000000FFFFFFFFFF0FA3
:103620000F0000000000000000000000000000008B
:1036300000000000000000005F005F0000000000CC
:10364000FF00FFFFFF7FFFFFFFFFFFFFFFFFFFFF09
:10365000FFFFFFFFFFFFFFFFFFFFFFFFFFFFFFFF7A
:10366000000000000000000000000000000000005A
:1036700000000000FF5FFF3F000000000000FFFFB0
:10368000FFFFFF003F003F00FFFFFFFFFFFFFFFFC7
:10369000FFFFFFFFFFFFFFFFFFFFFFFF0000000036
:1036A0000000000000005F005F000000000000005C
:1036B000FFFFFF5F000000000000FFFFFFFFFF00B3
:1036C00000000000FFFFFFFFFFFFFF5FFF3FFFFF66
:1036D000FFFFFFFFFFFFFFFF0000000000000000F2
:1036E00000000000000000000000000000000000DA
:1036F0003F5F3F000000FFFFFF0FFFFFFF000000E4
:10370000FFFFFFFFFFFFFF0000003FFFFFFFFFFF86
:103710003F0000000000000000000000005F00000B
:10372000000000000000001F000000005F5F5F005D
:10373000000F00005F1F5F5FFF0000005F5F5F5FC3
:103740005FFFFF0000005F5F5F5FFFFFFF000000A3
:1037500000000000000000001FFF0000000000004B
:1037600000001F5F000000005F5F5F001F1F000080
:103770005F1F5F5FFF1F000F5F5F5F5F5FFFFF1FE8
:1037800000005F5F5F5FFFFFFF5F00000000000061
:103790000000000000000000000000000000000029
:1037A0000000000000000000000000000000000019
:1037B000000000000000FFFF7F00FF5FFF00003FF0
:1037C000FFFFFF1FFFFFFF0F0000000000000000D1
:1037D00000000000000000000000000000000000E9
:1037E00000000000000000001F00000000000000BA
:1037F000001FFF3F1F00FFFF3F003FFFFFFF3F1F76
:10380000FFFF7F0F0000000000000000000000002C
:1038100000000000000000000000000000000000A8
:10382000000000007F000000000000007F7FFFFF1D
:103830007F00FFFFFF003FFFFFFFFF1FFFFFFF1F96
:103840000000000000000000000000000000000078
:103850000000000000000000000000000000000068
:10386000FF000000FF0000001F7FFFBF3FBFFFFF02
:103870003F001FFFFFFFFFFFFFFF3F0F00000000A3
:103880000000000000000000000000000000000038
:10389000000000000000000000000F1FFF000000FB
:1038A000FF0000003FFFFFBF3FBFFFFF3F00FFFFE4
:1038B000FFFFFFFFFFFF3F0F0000000000000000C0
:1038C0000000000000000000000000000000FF00F9
:1038D0000000000000003F7FFF000000000000002B
:1038E000FFFFFF7F5F0000007FFFFFFFFFFFFF7F05
:1038F000FF3FFFFF0000000000000000000000008C
:10390000000000000000000000003F000000000078
:1039100000003F7F0000000000007F7FFFFFFF00EE
:1039200000000000FFFFFFFFFFFFFF3FFF3FFFFF23
:103930000000000000000000000000000000000087
:103940000000000000005F3F5F0000005F00FFFF1D
:10395000FFFF000000FF3F5FFFFFFF0000000000CF
:103960003FFFFFFFFFFFFFFFFF3FFFFF00000000E3
:103970000000000000000000000000000000000047
:1039800000003F005F005F003F003F3FFFFF00FF80
:1039900000FFFF3FFFFFFF0000000000FFFFFFFFF1
:1039A000FFFFFFFFFFFFFFFF00000000000000001F
:1039B0000000000000000000000000000000000007
:1039C0000000000000000000FFFFFFFFFFFFFF00FE
:1039D000FFFFFF3F3F3F3F3FFFFFFFFFFFFFFFFFB7
:1039E000FFFFFFFF000000000000000000000000DB
:1039F00000000000000000000000000000000000C7
:103A000000000000FF5FFF000000FF005FFFFFFFFE
:103A1000FFFFFFFFFFFFFFFFFFFFFFFFFFFFFFFFB6
:103A20000000000000000000000000000000000096
:103A30000000000000000000000000000000000086
:103A400000005F00000000000000FFFFFFFFFF001C
:103A5000FFFF005FFFFFFFFFFFFFFFFF0000000011
:103A60000000000000000000000000000000000056
:103A7000000000000000000000000000FFFFFF0049
:103A80000000FF00FFFFFFFFFFFFFFFFFFFFFFFF43
:103A9000FFFFFFFFFFFFFFFF00000000000000002E
:103AA0000000000000000000000000000000000016
:103AB00000000000000000003F00000000000F00B8
:103AC000FFFFFFFFFF00FF5FFF0FFFFFFFFFFFFF95
:103AD000FFFFFFFF000000000000000000000000EA
:103AE00000000000000000000000000000000000D6
:103AF00000000000FF00000000005FFFFFFFFF3F2D
:103B00003F003F3FFFFFFFFFFFFFFFFFFFFFFFFF04
:103B100000000000000000000000000000000000A5
:103B20000000000000000000000000000000000095
:103B3000000000000000FF000000FFFF0000000088
:103B4000FFFFFFFFFFFFFF1FFFFFFFFF0000000061
:103B50000000000000000000000000000000000065
:103B6000000000000000000000000000FF00000056
:103B70000000FF00FFFFFFFF00003F5FFF1FFFFF90
:103B8000FFFFFFFFFFFFFFFF00000000000000003D
:103B90000000000000000000000000000000000025
:103BA00000000000000000005F00000000005F0057
:103BB000FFFFFF0000000F0FFFFFFFFFFFFFFF00F1
:103BC000FFFFFFFF000000000000000000000000F9
:103BD00000000000000000000000000000000000E5
:103BE000000000000000000000000000FF5FFF0078
:103BF000000000005F7FFFFFFFFFFF00FFFFFFFFF0
:103C000000000000000000000000000000000000B4
:103C100000000000000000000000000000000000A4
:103C200000000000000000005F1F5F0000000000B7
:103C30005F00FFFFFF3F1F003F5FFFFF000000002E
:103C40000000000000000000000000000000000074
:103C5000000000000000000000005F001F000000E6
:103C600000000000FFFF5F000000005FFF5FFFFF3C
:103C7000FF00000000FFFFFF000000000000000048
:103C80000000000000000000000000000000000034
:103C9000000000000000FF00FF0000000000000026
:103CA000FFFFFFFF00000000FFFFFFFFFFFF00001E
:103CB0000000FFFF00000000000000000000000006
:103CC00000000000000000000000000000000000F4
:103CD00000000000FF0000000000000000FFFFFFE8
:103CE000FF00000000FF00FFFFFFFF00000000FFDB
:103CF00000000000000000000000000000000000C4
:103D000000000000000000000000000000000000B3
:103D10000000FF0000000000000000FFFFFF0000A7
:103D20000000000000FFFFFF000000FF0000000097
:103D30000000000000000000000000000000000083
:103D40000000000000000000000000000000FF0074
:103D50000000000000000FFFFFFF0F000000000048
:103D6000FFFFFFFFFF000000000000000000000058
:103D70000000000000000000000000000000000043
:103D800000000000000000000000FF000000000034
:103D90000000FFFFFFFF000000000000FFFFFFFF2B
:103DA0000000000000000000000000000000000013
:103DB0000000000000000000000000000000000003
:103DC0000000000000000000000000000000FFFFF5
:103DD000FF5FFF0000000000FFFFFFFFFF0000008B
:103DE00000000000000000000000000000000000D3
:103DF00000000000000000000000000000000000C3
:103E000000000000000000000000FF3FFF3FFF0037
:103E10000000FF1FFFFFFFFFFF1FFF00000000006B
:103E20000000000000000000000000000000000092
:103E30000000000000000000000000000000000082
:103E400000000000FF00FF3FFF3FFF00FF00FFFFFB
:103E5000FFFFFFFFFFFFFFFF0000FF0000FF00006C
:103E6000FF0000FF00000000000000000000000054
:103E70000000000000000000001E00000000001E06
:103E8000000000320000001E0032001E5032505070
:103E90001E003232500050000032503250000050AC
:103EA0000000000000000000000000000000000012
:103EB00000000000000000000000001E00000032B2
:103EC0000000001E0032001E503250501E003232E0
:103ED00050005000003250325000005000000000EE
:103EE00000000000000000000000000000000000D2
:103EF0000000000000000032000000321E00001E22
:103F00000032321E503250501E00323250005000EB
:103F1000003250325000005000000000000000004D
:103F2000000032000000000000000000000000005F
:103F30000000001E1E000032320000323232320019
:103F40003200000000323200001E50323232503255
:103F500050323250000000000000320000003232C7
:103F600000000000003200000032000000000032BB
:103F70001E00000A0A000000320A0A003200000097
:103F80001E3232000000500A0A325032500A0A50E3
:103F90000000000000000000000000000000000021
:103FA00000000000000000000000000000003200DF
:103FB0000000003232000000320000501E32320099
:103FC00000505000005050325000005000000000DF
:103FD00000000000000000000000000000000000E1
:103FE000000000000000000000000000001E1E0095
:103FF0000000001E320000501E32320000505000FF
:10400000005050325000005000000000000000003E
:1040100000000000000000000000000000000000A0
:104020000000000000000000321E1E000000001E04
:10403000320000501E3232320050500032505032A6
:1040400050000050000000000000000000000000D0
:104050000000000000000000000000000000000060
:1040600000000000500A0A005000000A3200005010
:104070000A323232000A0A5032500A320A00005024
:104080000000000000000000000000000000000030
:104090000000000000000000000000500000500080
:1040A000500A0A005000000A320050500A323232E0
:1040B000500A0A5032500A320A0000500000000034
:1040C000000000000000000000000000000A0000E6
:1040D000000A00000000005050000000500A0A00D2
:1040E0000000000A005050500A323232500A0A5082
:1040F00032500A320A0000500000000000000000A8
:104100001E0000001E000000001E1E0000001E0019
:104110000000001E5000001E500A0A000000000AA5
:1041200000501E1E0A1E3232500A0A9632500A1ED3
:104130000A00005000000000000000000A0000001B
:104140000A000000000A0A0000000A000000000A3D
:104150005000000A500A0A000000000A00501E1E0B
:104160000A0A32960A0A0A50320A0A0A0A00000AA1
:10417000000000000000000A0A0000000A0A000017
:10418000000A32000000320000000032500000320D
:10419000500A0A000000000A0050961E321E1E320D
:1041A0000A320A1E320A0A1E0A00000A0000000033
:1041B00000000000000000000000000000000000FF
:1041C0000000001E000000001E0000001E1E000077
:1041D00000329600003232000000323200000050FF
:1041E0000A50500050005050000000000000000035
:1041F00000000000000000000000000A00001E1E79
:104200000A0000001E0000001E960000003232006E
:10421000003232000000323200000A500A50500AC8
:10422000500050500000000000000000000000009E
:10423000000000000000000A0000009600000000DE
:10424000000000001E1E000000003200003232009C
:1042500000003232000000500A50500096005050CA
:1042600000000000000000000000000000005000FE
:10427000000000960000001E00000000000000008A
:104280001E1E5000000032500032320000003296F4
:10429000000000500A505000500050500000000034
:1042A000000000000000000000000000000000000E
:1042B0000000000000000000000000001E000A00D6
:1042C0000000960A003232000000323200000A502C
:1042D0000A50500A5000505000000000000000003A
:1042E0000000000000001E000000001E0000001E74
:1042F0001E000000000000001E000000006E3200E2
:10430000006E32000000326E00000A500A50500A5F
:1043100050005050000000000000000000000000AD
:104320000000000000000000000000001E0000006F
:10433000001E00001E321E00006E3232006E32007F
:104340000000326E00000A500A50500A50005050CF
:10435000000000000000000A000A00000000000049
:10436000000000000000000000000000003200001B
:1043700000323200006E3232326E32000000326E95
:1043800000320A500A50500A5000505000000A00F3
:10439000000000000000000000000000000000001D
:1043A0000000000000000000000A0000003232009F
:1043B0000032320A006E32000000326E000A0A50EB
:1043C0000A50500A96005050000000000000000003
:1043D00000000000000000000000000000000000DD
:1043E00000000000320A00001E320000006E320A97
:1043F0000A6E320000003296000A0A500A50500A33
:1044000050005050000000000000000000000000BC
:10441000000A00000000000A00000A00000000007E
:10442000000000001E000000000A960A000A320088
:104430000000320A000A0A500A50500A5000505038
:10444000000000000A0000000000000000000A0058
:104450000000000000000A000000000A0000000A3E
:104460000A0000000A0A0A0A0A0A32000000320A98
:10447000000A0A500A50000A500050500000000084
:104480000A0000000000000000000A0000000032E6
:104490000000000000000000323200000A000000AE
:1044A000000A0A0A000A32000000320A000A00501C
:1044B0000A50001E50005050000000000000000094
:1044C00000000000003200000000000000000000BA
:1044D00000000000323200000A000000000A0A0A50
:1044E000000A32000000320A000A00500A50001E82
:1044F00050005050000000000000000000000000CC
:10450000000A00000000003200000000000000006F
:10451000323200000000000000500A0A00000000D3
:104520000000320A000A00500A50001E500050508D
:10453000000000000000000000000000000A000071
:104540000000003200000032320000003232000071
:104550000000320000000A0A000000000000000A0B
:10456000000A00500A50001E500050500000000089
:104570000000000000000000000A320000000032CD
:104580000000000032000000320000000000320095
:1045900000000A0A003200000000000A000A005071
:1045A0000A50001E500050500000000000000000A3
:1045B0000000000000003200000000320000000097
:1045C00032000000000000000000320000000A0A73
:1045D000000050000000000A000A00500A50001EAF
:1045E00050005050000000000000000000000000DB
:1045F0000000320000000032000000000000000057
:10460000005000000050000000000A0000005000B0
:1046100000000000000000000A50001E5000505032
:104620000000000000000000000000000000320058
:104630000000003200000000000000000000000048
:104640000000000000000A00000050000000000010
:10465000500000500A500000505050500000000020
:104660000000000000000000000032000000000018
:1046700000000000000000000000000000500000EA
:1046800000000A00000050500000000050000050E0
:104690000A50000050505050000000000000000080
:1046A000000000000000000000000000000000000A
:1046B00000000000000000000A50500000000A50F6
:1046C0000000505000000000500000500A50000050
:1046D000505050500000000000000000000000009A
:1046E00000000000000000000000000A00000000C0
:1046F00000000000001E1E0000000A1E00001E0038
:1047000000000000500000500A00000050505050BF
:1047100000000000000000000000000000000A008F
:104720000000000000000000000000000000000089
:10473000000A0A0000000A0A00001E000000000033
:10474000505000500A00000050505050000000002F
:104750000A0000000000000000000000000000004F
:1047600000000000000000000000000000500A00EF
:1047700000000A5000001E000000000050500050D1
:104780000A000000505050500000000000000000DF
:104790000000000000000000000000000000000019
:1047A0000A0000001E00000000500A0000000A502D
:1047B00000001E0000000000505000500A000000E1
:1047C00050505050000000000000000000000000A9
:1047D00000000000000000000000000000000000D9
:1047E000000A000032500A0000000A5000961E0025
:1047F00000003250505000500A0000009600505007
:1048000000000000000000000000000000000000A8
:1048100000000000000000000A000000000A000084
:1048200000000A0000320A0000321E000000325070
:10483000000000500A1E00009600001E000000004C
:104840000000000000000000000000000000000068
:10485000000000000000000050000000500A0000AE
:1048600000320A00000A1E0000000A500A00005030
:104870000A1E1E009600001E00000000000000003E
:1048800000000000000000000000000000000050D8
:1048900050000000505000000A0A0000000A0A0000
:1048A00000001E00000000500A0000500A1E1E00FA
:1048B0003200001E000000000000000000000000A8
:1048C00000000000000000000000000A0A000000D4
:1048D0000A0A00000A0A0000000A0A0000001E007E
:1048E0000A0000500A0000500A1E1E003200001E7E
:1048F00000000000000000000000000000000000B8
:1049000000000000000000000A000000000A000093
:104910000000000000000A0000001E00000000501F
:104920000A0000500A1E1E003200001E0000000097
:104930000000000000000000000000000000000077
:104940000000000000000000000000000000000067
:1049500000000A0000501E00000050500A50005095
:104960000A1E1E003200001E0000000000000000B1
:104970000000000000000000000000000000000037
:1049800000000000000000000000000032000A00EB
:1049900000501E00000050500A5032500A1E1E32B5
:1049A0003200001E000000000000000000000000B7
:1049B00000000000000000000000000000000000F7
:1049C000000000000000000032000A0000501E003D
:1049D000505000000A003250001E1E323200001EED
:1049E00000000000000000000000000000000000C7
:1049F00000000000000000000000000000000000B7
:104A00000000000032000A0050001E0000000050AC
:104A10000A50000000001E325000501E000000002E
:104A20000000000000000000000000000000000086
:104A300000000000000000000000000A000A0A5008
:104A400032000A0050001E50000050500A50000072
:104A500000001E325000501E000000000000000048
:104A60000000000000000000000000000000000046
:104A70000000001E0000001E1E1E1E00001E000082
:104A8000001E1E1E1E001E001E001E001E00000036
:104A90005000501E00000000000000000000000058
:104AA0000000000000000000000000000000000006
:104AB0001E0000001E1E1E00001E0000001E1E1E06
:104AC0001E1E1E001E001E001E0000505000501E24
:104AD00000000000000000000000000000000000D6
:104AE0000000000000000000000000001E000000A8
:104AF0001E1E1E00001E000000501E1E1E00500044
:104B00001E0000001E0000505000501E000000005B
:104B10000000000000000000000000000000000095
:104B2000000000000000000000000000001E1E0049
:104B30000050000000501E1E1E001E001E001E0021
:104B40001E0000505000501E000000000000000039
:104B50000000000000000000000000000000000055
:104B60000000000000000000000A000000005000EB
:104B70000000501E5000001E5000001E1E0000507D
:104B80005000501E00000000000000000000000067
:104B90000000000000000000000000000000000015
:104BA000000A0000005000000000500A0000001E33
:104BB0005000000A5000000A1E0000501E0A501E3D
:104BC00000000000000000000000000000000000E5
:104BD0000000000A0000000A000000000050000071
:104BE0000000000000000A0A0000001E5000000A39
:104BF0000000500A005000501E0A501E0000000025
:104C00000000000000000000000000000000000A9A
:104C10000000000000000000000000000000000094
:104C200000000A500000001E5000000A5000000A58
:104C3000005000501E0A501E00000000000000003E
:104C4000000A00000000000000000000000000005A
:104C500000000000001E000000001E0000000A50BE
:104C60000000001E5000000A50000A0A00500050C8
:104C70001E0A501E000000000A0000000000000094
:104C80000000000000000000000000000000000024
:104C9000001E0000001E1E0000000A500000001E42
:104CA0005000000A50000A50005000501E0A501ECA
:104CB00000000000000000000000000000000000F4
:104CC000000000000000000000000000001E0000C6
:104CD000001E1E0000000A500000001E5000005080
:104CE0005000000A0050001E1E0A501E0000000066
:104CF00000000000000000000000000000000000B4
:104D00000000000000000000000A00000050000049
:104D10000000500A0000501E500000005000000A21
:104D20001E00001E0A0A501E0000000000000000C5
:104D30000000000000000000000000000000000073
:104D40000A0000001E0000000050000000000A0AD7
:104D500000001E1E0A0000005000000A1E00001E77
:104D60000A0A501E000000000000000000000000C1
:104D700000000000000000000000000A0000000029
:104D8000005000000050000000000A0A00001E1E33
:104D9000500000005000000A1E00001E1E0A501E97
:104DA0000000000000000000000000000000000003
:104DB00000000000000000005000000000000000A3
:104DC000005000000000000A00001E1E50000000FD
:104DD0005000000A1E00000A0A0A501E00000000CF
:104DE000000000000000000000000A0000000000B9
:104DF000000000000000000000000000001E1E0077
:104E00000000500A00001E1E500000005000000A62
:104E10001E00001E0A0A501E0000000000000000D4
:104E20000000000000000A00000000000000000078
:104E30001E000000001E0000001E1E000000500AA0
:104E400000001E1E5000001E50001E0A1E00001E04
:104E50000A0A501E000000000000000000000000D0
:104E600000000A0000000000000000000A0000002E
:104E7000000A0000000A0A000000500A00001E1E7E
:104E80000A000A1E50001E0A1E00001E0A0A501EBA
:104E900000000000000000000000000000000A0008
:104EA00000000000000000000A000000000A0000EE
:104EB000000A0A000000500A000A1E1E0A0A0A1E02
:104EC00050001E0A1E00001E0A0A501E00000000AC
:104ED00000000000000000000000000000000000D2
:104EE0000000000000000000000A000000500A005E
:104EF0000000500A000A1E1E0A0A0A1E50001E0A5E
:104F00001E00001E0A0A501E0000000000000000E3
:104F10000000000000000000000000000000000091
:104F200050000000000A0000000A0A000000500AB9
:104F300000001E1E0A0A0A1E50001E0A1E00001E45
:104F40005050501E00000000000000000000000053
:104F50000000000000000000000000000000000051
:104F600000500000000A0A0A0000500A00001E1E3D
:104F70000A0A0A1E50001E501E00001E0A50501E33
:104F80000000000000000000000000000000000021
:104F90000000000000000000000A0000000A0000FD
:104FA000000A0A0A0000000A0A00001E0A0A0A0093
:104FB00050001E501E00001E0A50501E000000002F
:104FC00000000000000000000000000000000000E1
:104FD00000000000000A0000000A000000000A0AA9
:104FE0000000000A0A00001E0A0A0A0050001E50B3
:104FF0001E00001E0A50501E0000000000000000AD
:1050000000000000000000000000000000000000A0
:10501000000A00000000000000000A0A0000000A68
:105020000A000A1E0A500A000A001E501E00000A4A
:105030000A50501E000000000000000000000000A8
:10504000000000000000000000000000000A000056
:105050000000000000000A0A0000000A0A00001E0A
:105060000A500A0000001E500000000A0A50501E9C
:105070000000000000000000000000000000000030
:105080000000000000000000000A00000000000016
:1050900000001E50000A00000A0000000A505000E4
:1050A000000A1E0A000A0A0A5050501E00000000A2
:1050B00000000000000000000000000A0A000000DC
:1050C00000000000000A000000000A0000001E505E
:1050D000500000000A0000001E500A0A001E1E0AAE
:1050E0000A500A0A5050501E00000000000A00003A
:1050F000000000000000000A000000000A0000009C
:10510000000A00000000500000001E500A000000CD
:105110000A0000001E000A0A001E1E0A0A501E0A8B
:105120005050501E0A000000000A000000000A0053
:105130000000000A000000000A000000005000000B
:1051400000005000000000500A0000000A000000AB
:105150001E000A0A00001E0A501E1E0A500A501E97
:105160000A000000000A0A00000000000000000A17
:105170000000000000000000000A000000000A001B
:10518000000000500A0000000A00000000000A0AA7
:10519000001E1E0A960A1E0A500A501E0A0000002F
:1051A00000000A00000000000000000000000000F5
:1051B00000000000000A1E0000000A00000000506D
:1051C0000A0000000A96000000000A5000001E0AB3
:1051D0001E0A1E0A500A5050000000000000000085
:1051E00000000000000000000000000000000000BF
:1051F000000A1E0000009600000000500A00000097
:105200000A50000000000A0A0A001E0A1E0A000ACC
:10521000500A0A5000000000000000000000001EBC
:1052200000000000000000000000000000960000E8
:1052300000000A0000000050500000000A1E00009C
:1052400000000A0A0A001E0A1E0A000A500A0A5032
:10525000000A000000000000000000000000000044
:10526000000000000000000000000A0000005000E4
:1052700000000050001E0000501E1E0000005000E4
:105280000000000A1E0000500A0A0A9600000000F2
:10529000000000000000000000000000000000000E
:1052A0000000000000000A000000000000000050A4
:1052B0009600000050000000000050500000000A5E
:1052C0001E0000500A0A5096000000000000000076
:1052D00000000A00000000000000000000000000C4
:1052E000000000000000000000000050500000001E
:1052F00050000000000050500A00000A1E0000503C
:105300000A0A0A5000000000000A00000000000025
:10531000000000000000000000000000000000008D
:10532000000050000000005050000000500000003D
:10533000000050500000000A1E1E1E500A0A501E97
:10534000000000000000000000000000000000005D
:10535000000000000000000000000A0000005000F3
:1053600000000050500000005000000000005050AD
:105370000000000A1E001E500A0A1E1E0000000047
:105380000000000000000A00000000000000000013
:10539000000000000000000000005000000000506D
:1053A0005000000050000000000050960000000A6D
:1053B0001E0096500A0A0A6E00000000000000005D
:1053C00000000000000000000000000000000000DD
:1053D000000000000000000000000050000A000073
:1053E00050960000000050500000000A1E00965029
:1053F0000A0A0A6E00000000000000000000000021
:1054000000000000000A00000000000000960000FC
:1054100000000000000000005000000050000000EC
:10542000005050500000500A1E0000500A0A0A1E88
:10543000000000000000000000000000000000006C
:10544000000A000000000000006E000000000000E4
:1054500000000000500000005000000000505050BC
:105460000A00500A1E001E500A0A0A1E0000000010
:10547000000000000000000A000000000000000022
:105480000000000000960000000050000000000036
:105490005000000050000000005050500000500A22
:1054A0001E001E500A0A961E0000000000000A009E
:1054B0000000000A000000000000000000000000E2
:1054C0000096000000000A000000000050000000EC
:1054D000500A00000050500A0000500A1E006E5092
:1054E0000A0A506E0000000000000A0000000000E0
:1054F0000000006E0000000000000000006E0000D0
:105500000000500000000000500000005050001E3D
:1055100000000050001E000A1E001E500A0A501E05
:105520000A00000000000000000000000000000071
:10553000000000000000000000000000000000006B
:10554000000000005000000050501E1E00000050DF
:10555000501E000A1E1E00500A0A500A00000000D9
:10556000000000000000000000000000000000003B
:10557000000000000000000000000000505000008B
:105580005000000050501E5000000050501E000AF5
:105590001E1E00500A0A500A000000000000000011
:1055A00000000000000000000000000000000000FB
:1055B00000000A000A0000000000000000000000D7
:1055C00050501E5000000000001E000A1E1E005019
:1055D0000A0A500A0000000000000000000000005D
:1055E00000000000000000000000000000000000BB
:1055F00000000A0A0A0000000A0A0A0A320A3200F7
:105600003232320A320A0A500A50000A5000505010
:10561000000000000000000000000000000000008A
:1056200000000000000000003200003200000A0A02
:10563000320000000A000A3232000000323232002A
:10564000320A0A500A5000000000505000000000CA
:1056500000000000000000001E003200001E000AD2
:10566000000000000000000000000000000000003A
:105670000A0000323200000032323250320A0A5040
:105680000A5000000000505000001E000A00001EDA
:10569000000A000000000000000000000000000000
:1056A00000000A0000003200005000000A00003232
:1056B0003200320032320050320A0A500A00000032
:1056C0000000500000001E000A00001E000A0A0030
:1056D0000000000032000000000000000000000098
:1056E0000000000050500000005000323200320034
:1056F00032325050320A0A500A0000005000500066
:105700003200000000000A0000000000000000005D
:105710000000000000000000000000000000000089
:1057200050500000005000323200320032325050EF
:10573000320A0A500A000000500050000000000029
:105740000000000000000000000000000000000059
:105750005000500000000000000000500050000009
:10576000005000323200320032325050320A0A50B9
:105770000A0000005000500000000000000000007F
:105780000000000000000000000000000000000019
:105790000000000032003200000000000050003223
:1057A0003200320032325050320A0A000A00000041
:1057B00000000000000000000000000000000000E9
:1057C00000000000000000000000000000000000D9
:1057D000000032320032000000500032320032004D
:1057E00032325050320A0A000A0000000000000065
:1057F0000000000000000000000000320000000077
:105800003200000000000000000000000000000066
:10581000323200000A5032323200320032325050FE
:10582000320A0A000A0000000000000000320000F6
:105830000000320000000000000000000000000036
:105840000000000000000000000000000000000058
:105850000A503232320032003232505032320A3282
:105860000A00000000000000000A00000000000024
:105870000000000000000000000000000000000028
:105880000000000032000032320000000A503232C4
:10589000320032003232505032320A320A000000F6
:1058A00000000000000000000000000000000000F8
:1058B0000000000000000000000000000050000098
:1058C00032000032320000000A5032323200320020
:1058D0003232505032320A320A000050000050007A
:1058E00000000000000000000000000000000000B8
:1058F00000000000000000000000000000000000A8
:10590000000000000000000A005000000050501E7F
:1059100000500A0000500A50505050500000000043
:105920000000000000000000000000000000000077
:105930000000000000000000000000000000000067
:10594000000A000A005000000050001E00500A002B
:1059500000500A505050505000000000000000005D
:105960000000000000000000000000000000000037
:105970000000000000000000000000000000000027
:10598000323250001E00320A5032500A1E321E506F
:10599000500A00320000000000000000000000007B
:1059A00000000000000000000000000000000000F7
:1059B0000000000000000000000000000050001E79
:1059C000005000001E00005000500A50505050502F
:1059D00000000000000000000000000000000000C7
:1059E00000000000000000000000000000000000B7
:1059F0000000001E000000001E5000501E5000005D
:105A00000000005000500A506E505000000000008E
:105A10000000000000000000000000000000000086
:105A20000000000000000000000000000000000076
:105A300000000000323250001E00320A5032500A7C
:105A40001E321E50500A003200000000000000000C
:105A50000000000000000000000000000000000046
:105A6000000000000000001E0000000A000A000004
:105A70000000000A000A00501E00505000506E50F6
:105A80006E50500000000000000000000000000008
:105A90000000000000000000000000000000000006
:105AA0000000001E00000000000000000000001EBA
:105AB000005000501E000050005000506E50506EBC
:105AC00000000000000000000000000000000000D6
:105AD00000000000000000000000000000000000C6
