:020000040800F2
:1000000028070020C5000008B51C00084919000891
:1000100000000000000000000000000000000000E0
:100020000000000000000000000000000D1F00089C
:100030000000000000000000FD1C0008911F0008E7
:10004000D700000800000000D7000008D700000813
:10005000D7000008D7000008D7000008D700000824
:10006000000000005D050008D7000008D700000868
:10007000D7000008D7000008D700000800000000E3
:10008000D70000080000000000000000D7000008B2
:1000900000000000D7000008D7000008D7000008C3
:1000A00000000000D70000080000000049240008FC
:1000B0000348854600F050F8004800479D25000899
:1000C000280700200448804704480047FEE7FEE771
:1000D000FEE7FEE7FEE7FEE79D200008B10000080E
:1000E00030B50B46014600202022012409E00D46D0
:1000F000D5409D4205D31D469540491B2546954058
:1001000040191546521E002DF1DC30BD70B500249B
:100110002546002801DA01244042002901DA0125A0
:100120004942FFF7DDFFAC4200D04042002C00D036
:10013000494270BDD2B201E00270401C491EFBD2A0
:1001400070470022F6E710B513460A4604461946E2
:10015000FFF7F0FF204610BD064C0125064E05E0D6
:10016000E36807CC2B430C3C98471034B442F7D3D8
:10017000FFF7A2FF6C2700088C27000870B5044623
:1001800020688168490720D5816810254907002922
:1001900005DA8168890702D481682943816000F00B
:1001A00049FE06460DE000F045FE801B022808D9F6
:1001B000606C28436064A06C01210843A0640120A6
:1001C00070BD206880684007EDD4002070BD10B578
:1001D0000146486A426C50231A420AD1416C0122FE
:1001E0005202114341640168CA681205920F05D09A
:1001F00020E0C06B026B0846904710BD026A002ADF
:1002000018D10A68120715D58A6801235207002AF7
:1002100009DB4A680C24A2434A60416C1A029143EC
:100220001943416406E0416C202211434164816C12
:100230001943816400F0BEFA10BD10B5406A416CEC
:10024000402211434164816C04221143816400F017
:10025000B3FA10BD10B5406A00F0ADFA10BDF8B5A4
:100260000446206881688907890F012930D1016817
:10027000C90702D1C16809042AD581680522114045
:1002800010250126012907D0606C28436064A06C0A
:100290003043A0640120F8BD8168022211438160CF
:1002A00021680320086000F0C5FD07460CE000F05F
:1002B000C1FDC01B022807D9606C28436064A06C94
:1002C0003043A0640120F8BD20688068C007EED1EB
:1002D0000020F8BDF8B50446002000902068816831
:1002E0008907890F012905D10168C90737D1C1687C
:1002F000090434D481681B4A1026114001250029C5
:1003000007D0606C30436064A06C2843A064012077
:10031000F8BD816829438160144813490068FFF7DC
:10032000DFFE009002E00098401E00900098002838
:10033000F9D100F07FFD07460CE000F07BFDC01B0B
:10034000022807D9606C30436064A06C2843A06425
:100350000120F8BD20680068C043C007EDD100202F
:10036000F8BD00001700008040420F007000002020
:1003700070B51848017800292BD00021017016486B
:1003800000F074FB002803D04B2114A002F098F871
:100390000020164A154664354100535A6B52401CE2
:1003A000C0B23228F8D3322210490B4800F00CFBBF
:1003B000002803D0512109A002F082F80024600037
:1003C000295A0A48C83000F013F8641CE4B2322CF1
:1003D000F5D370BD16000020240200202E2E5C41B3
:1003E00070705C685F6164632E630000CE00002063
:1003F00070B50446002200232380501EA080E088B0
:10040000400000190181E088401C80B2E080322861
:1004100000D3E3800020410009190B892588AB42F5
:1004200000D923800B89A588AB4200D2A38009891B
:100430008A18401CC0B23228EDD332211046FFF793
:100440004FFE608070BD10B500F002F810BD0000D6
:10045000F8B53E4A3E4B107800241F461E378446AE
:100460000DE00A21D17091783E5C4D1C95705E5470
:100470003C54401CC0B250701E2800D354705078B9
:100480008445EED1D07800285DD0401E0006000ED5
:10049000D07025D11878012702262E4D422808D188
:1004A0005978302905D19978302902D1D978352960
:1004B00004D000282ED0492833D035E018792649B9
:1004C00030280ED0312818D0322818D0332818D030
:1004D000342819D035281AD0362801D106200870C2
:1004E000F8BD0C7009200121C00600F095FC012820
:1004F00001D02C70F8BD2E70F8BD0F70F8BD0E70D5
:10050000F8BD03200870F8BD04200870F8BD052070
:100510000870F8BD2878002801D02C700DE02F70ED
:100520000BE05978492902D0492802D005E02E7005
:1005300003E05878412800D12C7094701E210448A3
:10054000FFF7FFFDF8BD9470F8BD0000110000201A
:1005500074000020050000200600002010B50348AC
:1005600000F0FBFA02490020087010BDE0020020F4
:100570001600002010B504460549206840181421D3
:10058000FFF7AEFD800020640248E06310BD00006C
:10059000F8FFFDBF0000024030B5056C0124AC40FF
:1005A000C56B6C60046863604368102B04D00368FB
:1005B00099600068C26030BD03689A600068C160DD
:1005C00030BD01E0401EC0B20028FBD170470000E2
:1005D00010B500241021044800F01EFC002800D1B2
:1005E0000224204610BD000000040048F8B504466F
:1005F0000026254640352878012808D0012028709B
:10060000206881688907890F012908D101E002204B
:10061000F8BD0168C90738D1C168090435D4616CD7
:10062000FF2201329143022211436164C1688907AC
:10063000890F0091C16889088900C16020688168BC
:1006400092071143816000F0F5FB07460EE000F0D1
:10065000F1FBC01B022809D9606C022188431021DC
:1006600008436064002028700120F8BD206880687D
:100670000028ECDB2068C168009A1143C160606CFF
:1006800080088000401C606404E0606C2021084306
:1006900060640126002028703046F8BDF8B50025BA
:1006A00000220092044640342278012A39D00123E6
:1006B00023700268966876076AD43A4F4E68BE4245
:1006C00050D0966A0F78BB401E4396620123826B1E
:1006D0001B079A421FD0012A1DD0022A1BD0032AD1
:1006E00019D0042A17D0052A15D0062A13D0072AB4
:1006F00011D002688B6856697607760FB3420AD02C
:100700005369DB08DB005361006842690B7A5B07C1
:100710005B0F1A4342610868102804D0112802D0E8
:100720003BE00220F8BD204B9A68102807D001203A
:10073000800502439A600868102803D02DE001204C
:10074000C005F6E71A4819490068FFF7C9FC0A21F5
:100750004843009002E00098401E00900098002856
:10076000F9D11AE0906A0E78B34098439062086815
:10077000102801D0112810D10B498A68102804D004
:100780000120800582438A6007E00120C005F9E767
:10079000416C20221143416401250020207028462D
:1007A000F8BD0000011000000027014040420F008A
:1007B000700000207047704770470000F8B504468D
:1007C0000025002C03D0606C002802D008E0012036
:1007D000F8BD0020A06440210855204600F0AAF88A
:1007E000606C1022C006002870DB20688168490711
:1007F0006CD4616C130199430223194361648168CD
:100800008907890F012905D10168C9070FD1C1687E
:1008100009040CD4C16818239943A3681943C16023
:1008200020680169636889008908194301612068AB
:10083000C1683E4B1940C160A0698103E069C003F3
:100840000143206A43031943636B012B02D0012348
:100850001B0300E000231943E36819432369022BBB
:1008600009D000231943236B5B001943666A0123F7
:10087000012E02D00AE00423F4E7002827D0606CA0
:10088000202630436064A06C1843A064A06A06462A
:10089000FF3EC23E02D0E66A304301432068C6688C
:1008A0000E43C6600126A06B3607B04213D0012864
:1008B00011D002280FD003280DD004280BD0052812
:1008C00009D0062807D0072805D010E027E001202E
:1008D00000040143DAE720684669F608F60046613D
:1008E00020684669278F7F077F0F3E434661206857
:1008F000C0680F4E3040884207D10020A064606C71
:1009000080088000401C60640DE0606C0221884318
:1009100010436064A06C1843A064012503E0606C80
:100920001043606401252846F8BD00001902FEFF4F
:10093000E7FF3F8370B586B00646184930688842A5
:100940002AD11748826941150A43826180690840AB
:1009500000900220019003200290002503950920B9
:1009600001A9C00600F0B4F90F4C0E482060656084
:10097000A5608020E0604000206180006061A5618A
:10098000E561204600F03EF9002803D0682107A069
:1009900001F096FDF463666206B070BD002401406C
:1009A0000010024008000240E00200202E2E2F53CB
:1009B00072632F73746D3332663078785F68616C60
:1009C0005F6D73702E630000F7B504460025206844
:1009D000806840073ED426464036307801280BD048
:1009E00001273770E069012803D02046FFF772FC29
:1009F0000546002D02D02EE00220FEBD606C174996
:100A00000840FF210131084360640020A064307079
:100A1000E16B13488862E16B1248C862E16B1248CF
:100A2000086321681C200860206841681022114377
:100A300041602068C1683943C1602168E06B403182
:100A4000029B019A00F00AF9206881680422114390
:100A5000816000E002252846FEBD0000FEF1FFFF98
:100A6000CF010008550200083B020008F8B5044613
:100A7000264640363078012808D0012737702046B6
:100A8000FFF77CFB0546280002D028E00220F8BDD5
:100A90002068C16849084900C160E06B00F023F894
:100AA0000546280003D0606C40210843606420683C
:100AB0004168102291434160002D05D02046FFF788
:100AC000CEFB002D05D00AE02046FFF7C8FB054607
:100AD000F7E7606CFF2101318843384360640020F0
:100AE00030702846F8BD01680A680E239A430A60F0
:100AF00001680A68520852000A600123026C194614
:100B00009140C26B51602030437000210170002081
:100B1000704770B50024014620314A78022A03D07C
:100B200004218163012416E0026813680E25AB439B
:100B30001360026813685B085B0013600125036C97
:100B40002A469A40C36B5A604D7000220A70416B6E
:100B5000002900D08847204670BDF0B4C16B0B68F7
:100B600001680C680422056C1646AE401E4210D087
:100B700066070ED50B689B0602D40B6893430B6087
:100B8000016C8A40C16B4A60C16A002938D0F0BC50
:100B9000084702273E46AE4002461E402032002E45
:100BA00015D0A60713D50B689B0605D40B680A243D
:100BB000A3430B6001215170016C8F40C16B4F60EA
:100BC00000211170816A00291AD0F0BC084708265C
:100BD000AE401E4214D0230712D50B680E24A34347
:100BE0000B600121046C0B46A340C46B63608163FE
:100BF000517000211170016B002901D0F0BC084731
:100C0000F0BC704770B50446002C23D00220254666
:100C100020356870206801680F4A1140A368626837
:100C200026691A43E36833431A4363691A43A36985
:100C30001A43E3691A430A4302602046FFF79AFC0D
:100C40000020A062E06220636063A06301216970FC
:100C5000287070BD012070BD0FC0FFFFF8B50446BD
:100C60008C460025204620300178012909D0012634
:100C7000067047780021012F05D001700225284613
:100C8000F8BD0220F8BD02274770A1632068016803
:100C900049084900016061462046FFF77DFCE06A93
:100CA000002805D0206801680E221143016009E088
:100CB000206801680A22114301602068016804224B
:100CC000914301602068016831430160D7E700006B
:100CD000F8B500228EE001249440A4462340002B66
:100CE0007ED04C68022C01D0122C0CD1D408A40068
:100CF00027183D6A5407E40E0F26A640B5430E6937
:100D0000A6402E433E62076855000324AC40A7432B
:100D10000E79B607B60FAE403E4306604E68012E10
:100D200005D0022E03D0112E01D0122E0ED18768CD
:100D3000A743CE68AE403E43866047686646B743E9
:100D40000E79F606F60F96403E434660C668A64307
:100D50008C68AC403443C4604C68E40049D5284CEE
:100D6000A56901263543A561A4693440009495081E
:100D7000244CAD002F19BD689407240F0F26A64000
:100D8000B5430926F606B04201D100260FE01E4EFB
:100D9000B04201D101260AE01C4EB04201D1022628
:100DA00005E01B4EB04201D1032600E00526A64017
:100DB0002E43BE60174D2C689C434E68F60300D549
:100DC0001C432C606C689C434E68B60300D51C43E2
:100DD0006C60AC689C434E68F60200D51C4300E092
:100DE00007E0AC60EC689C434E68B60200D51C433B
:100DF000EC60521C0B681C46D44000D06BE7F8BD79
:100E000000100240000001400004004800080048B3
:100E1000000C0048000401400069084201D0012094
:100E2000704700207047002A01D0816170478162BD
:100E30007047000001480068704700000000002073
:100E400002480168491C0160704700000000002052
:100E500010B506480168102211430160002000F01F
:100E600007F800F017F8002010BD00000020024035
:100E700010B5044600F052F97D21C900FFF730F9A2
:100E800000F0A2FB00222146501E00F029F80020AD
:100E900010BD000008B50C48816901221143816131
:100EA00080691040009000221146501F00F018F891
:100EB00000221146901E00F013F800221146501E29
:100EC00000F00EF808BD000000100240C106C90E77
:100ED00001208840014908607047000000E100E0FF
:100EE00010B500F0E9FE10BDF8B504462068374D96
:100EF000C00356D50026E869C00007D4E869290474
:100F00000843E861E869084000900126304801681C
:100F1000C90513D4014608688A1510430860FFF715
:100F200089FF074606E0FFF785FFC01B642801D94B
:100F30000320F8BD26480068C005F4D5286A0321BF
:100F40000902084000281FD062680A4082421BD074
:100F5000286A88432A6A012109040A432A622A6A04
:100F60008A432A622862C0070ED0FFF763FF074654
:100F700007E0FFF75FFFC11B1648814201D903203C
:100F8000F8BD286A8007F4D5286A0321090288433E
:100F9000616808432862012E03D1E869310788435C
:100FA000E8612078C00705D0286BA1688008800020
:100FB000084328632078800605D5286B10218843D4
:100FC000E168084328630020F8BD000000100240DB
:100FD0000070004088130000F8B504460E464A48E9
:100FE0000068C007C00FB0420CD2474801684908EA
:100FF0004900314301600068C007C00FB04201D012
:101000000120F8BD2078414F800705D57868F02190
:101010008843A168084378602078C00749D0606899
:10102000012806D0022809D0396889070BD401208D
:10103000F8BD3968890306D40120F8BD39688901F3
:1010400001D40120F8BD79688908890001437960DD
:10105000FFF7F0FE0546606801280AD0022816D086
:1010600023E0FFF7E7FE411B2948814201D9032015
:10107000F8BD78680007800F0128F2D119E0FFF76A
:10108000D9FE411B2248814201D90320F8BD78686E
:101090000007800F0228F2D10BE0FFF7CBFE411BC7
:1010A0001B48814201D90320F8BD78680007800FF2
:1010B000F3D115480168C907C90FB1420BD90168BE
:1010C00049084900314301600068C007C00FB042C1
:1010D00001D00120F8BD2078400706D578680721A7
:1010E00009028843E1680843786000F02DF87968C8
:1010F000084A0906090F515CC840074908600020EA
:10110000FFF7B6FE0020F8BD0020024000100240AC
:101110008813000052270008700000200148006872
:10112000704700007000002000B5FFF7F7FF04498A
:101130004968044A4905490F515CC84000BD000098
:10114000001002406227000810B588B016A043685E
:1011500002688168C068059304920691079016A002
:1011600001460EC9C0686C460EC40390164B5A68FF
:101170000C2011460140154804290FD008290DD133
:101180009102090F04AC645CD96A6B460907090F28
:10119000595CD20304D5FEF7A3FF604308B010BD2D
:1011A0000B486043FAE7000002030405060708093C
:1011B0000A0B0C0D0E0F10100102030405060708A0
:1011C000090A0B0C0D0E0F100010024000127A00DD
:1011D00000093D00FEB504462078F04DC00756D00A
:1011E00068680007800F012807D068680007800F33
:1011F00002280AD16868C00307D52868800346D54D
:101200006068002843D10120FEBD01216068090407
:10121000012811D08A00002812D0052817D028688C
:10122000884328602868904328606068002820D0A0
:10123000FFF700FE064618E0286808432860F4E738
:10124000286888432860286890432860EDE728686C
:1012500010432860286808432860E6E7FFF7EAFDA6
:10126000801B642801D90320FEBD28688003F5D5C2
:101270000DE0FFF7DFFD064606E0FFF7DBFD801B14
:10128000642801D90320FEBD28688003F5D42078A6
:1012900001268007002849DA68680007800F07D018
:1012A00068680007800F022812D16868C0030FD455
:1012B0002868800704D5E068012801D00120FEBD20
:1012C0002868F82188432169C900084328602DE077
:1012D000E068002818D0286830432860FFF7AAFD8E
:1012E000074606E0FFF7A6FDC01B022801D9032030
:1012F000FEBD28688007F5D52868F8218843216954
:10130000C9000843286011E02868400840002860B0
:10131000FFF790FD074606E0FFF78CFDC01B022893
:1013200001D90320FEBD28688007F5D42078000786
:1013300026D5E069002811D0686A30436862FFF75B
:1013400079FD074606E0FFF775FDC01B022801D9AD
:101350000320FEBD686A8007F5D511E0686A400881
:1013600040006862FFF766FD074606E0FFF762FD92
:10137000C01B022801D90320FEBD686A8007F5D48E
:10138000207804274007002871DA00200190E869DE
:10139000C00008D4E969B8060143E961E969014080
:1013A0000091012001907E480168C90513D40168AD
:1013B000821511430160FFF73DFD029007E0FFF742
:1013C00039FD0299401A642801D90320FEBD7448F2
:1013D0000068C005F3D5A068012811D0002813D0FB
:1013E000052819D0286A400840002862286AB843B6
:1013F0002862A068002823D0FFF71CFD02901BE0A4
:10140000286A30432862F4E7286A400840002862CE
:10141000286AB8432862ECE7286A38432862286AB9
:1014200030432862E5E7FFF705FD0299411A5D4860
:10143000814201D90320FEBD286A8007F3D50FE061
:10144000FFF7F8FC029008E0FFF7F4FC0299411A5C
:101450005448814201D90320FEBD286A8007F3D495
:101460000198012803D1E96900078143E9612078E7
:10147000C00640D5606901280CD0401D26D0686B9D
:1014800038436863686B400840006863FFF7D2FC2C
:1014900006462DE0686B38436863686B30436863C9
:1014A000FFF7C8FC064606E0FFF7C4FC801B0228D5
:1014B00001D90320FEBD686B8007F5D5686BF82164
:1014C0008843A169C9000843686314E0686BB843A6
:1014D0006863686BF8218843A169C90008436863A1
:1014E00009E0FFF7A7FC801B022801D90320FEBDFD
:1014F000686B8007F5D4206A00284BD0696809071B
:10150000890F022948D001273F06022806D0286803
:10151000B8432860FFF78EFC044638E02868B843DB
:101520002860FFF787FC064606E0FFF783FC801B78
:10153000022801D90320FEBD28688001F5D4E86A9D
:10154000E16A000900010843E862616AA06A084391
:1015500069683D2212049143084368602868384353
:101560002860FFF767FC044606E0FFF763FC001BFA
:10157000022801D90320FEBD28688001F5D509E0C5
:10158000FFF758FC001B022801D90320FEBD286884
:101590008001F5D40020FEBD0120FEBD00100240F8
:1015A000007000408813000004220549042803D07D
:1015B00008699043086170470869104308617047E3
:1015C00000E000E07047000010B50949401E884265
:1015D00001D9012010BD074C60610321081F00F0F4
:1015E0006BFB0020A06107202061002010BD0000DF
:1015F000FFFFFF0000E000E010B5FFF7E3FF10BDC4
:1016000070B50446204660300546407A21280FD147
:101610002068816809060BD581688022914381602A
:10162000206E002801D0FFF75EFA204600F0F8FD9A
:10163000A87A22280FD12068816849060BD58168D5
:10164000402291438160606E002801D0FFF74BFA81
:10165000204600F0C9FD002070BD7047F8B5044673
:101660002368D869196805072D0F002D07D1820658
:1016700005D58A0603D5204600F0DBFDF8BD9A6843
:10168000002D68D0D507ED0FFF2621360E402E43E2
:1016900061D0C60706D0CE0504D501261E62E36ED2
:1016A0003343E366860702230427002E06DAD607B3
:1016B00004D026683362E66E3E43E666460706D5EA
:1016C000D20704D022681762E26E1A43E26602076C
:1016D00009D520220A402A4305D0236808221A622D
:1016E000E36E1343E366E26E002AC7D0800604D59A
:1016F000880602D5204600F09CFDE06E000703D46A
:1017000020688068400620D5204600F06DFD2068E6
:101710008168490615D58168402291438160606ED9
:1017200000280AD014494163606EFFF7F2F90028DF
:10173000A4D0606E416B8847F8BD2046FFF78DFF4F
:10174000F8BD2046FFF789FFF8BD2046FFF785FF6B
:101750000020E066F8BD020605D50A0603D520463E
:1017600000F03EFEF8BD4006FCD54806FAD52046FE
:1017700000F049FDF8BD0000D521000870B5044611
:10178000002C05D025466035687A002802D006E096
:10179000012070BD00202872204600F029F8242086
:1017A000687220680168490849000160204600F01D
:1017B00069FD012819D0606A002802D0204600F097
:1017C0009BFC206841680122D2029143416020685D
:1017D00081680822914381602068016801221143D9
:1017E0000160204600F0EDFC70BD012070BD0000DE
:1017F00000B587B00068124988421FD1114882693C
:10180000012189030A4382618069084001900C200C
:1018100002900220039000200490032005900120F4
:101820000690092002A9C006FFF752FA00221146CD
:101830001B20FFF755FB1B20FFF748FB07B000BD3F
:10184000003801400010024070B5034660339C7AB6
:10185000202C01D0022070BD00290AD0002A08D017
:10186000012584682D03AC4209D10669002E02D0FF
:1018700005E0012070BDCE0701D0012070BD1E7AA9
:10188000012E0ED001261E724165014640310A83A9
:101890004A83FF22AC4209D10469002C03D08A8319
:1018A0000BE0022070BD0E4A8A8306E0002C04D1B2
:1018B0000469002C12D07F228A830021C166222273
:1018C0009A72197201688A6832438A6000680168F6
:1018D000FF22213211430160002070BD8A83ECE7B2
:1018E000FF01000030B5034660335C7A202C01D044
:1018F000022030BD00290AD0002A08D001258468C2
:101900002D03AC4209D10469002C02D005E001206E
:1019100030BDCC0701D0012030BD1C7A012C10D085
:10192000C164014640310A824A820021C1662122F7
:101930005A72197200680168802211430160002008
:1019400030BD022030BD7047FEE70000F8B52D4CD9
:101950004B27A078FF0000252B4E002834D020799B
:101960000122422802D0C2282ED125E0274B26484A
:1019700019780078022902D0012907D00AE0401C1A
:10198000C0B23070062805D9357003E0002811D0A8
:1019900035701D701E4802702189B94214D105703E
:1019A000258130780621484316490A31401800F055
:1019B00053FD09E03270EDE7E079322804D2154892
:1019C0000178012915D0027011490878002813D038
:1019D0002089401C80B22081B84209D90D70258130
:1019E00030780621484307490A31401800F034FD99
:1019F000F8BD03210170E7E72089B842F8D2401C06
:101A00002081F8BD200000200600002005000020F5
:101A1000100000200C00002070B5304C0026A6708D
:101A20002378834201D0207070BD2C496078CA7839
:101A300049790125834230D10028F5D0A379002BC4
:101A4000F2D05B1E1B061B0EA371EDD12071002A84
:101A500000D1A570002912D01422012916D0022924
:101A600001D00329E0D10321617180210843207155
:101A7000A271E079FA28D7D2401CE07170BD65717F
:101A80002021084320713220A07170BD02216171B4
:101A9000602108432071A27170BD002817D0207109
:101AA000002A00D1A570012908D00C48C022407836
:101AB0001043022906D0032907D105E0402108433D
:101AC000207102E0207100E02071667101E0E67093
:101AD000E6710520A071637070BD00002000002039
:101AE00010B5FEF775FDFFF797FF10BD3EB5224814
:101AF000204901604905416000218160C1600124E5
:101B00000461082242618161C16104624162FF2275
:101B1000C2328262C16201634163FEF74FFE002858
:101B200003D0CF2115A000F0CBFC009401200003CE
:101B300001900720029069460F48FEF7AFFD00288C
:101B400003D0D9210DA000F0BBFC0B48FEF74EFDE1
:101B5000002803D0DD2109A000F0B2FC32220B499D
:101B60000548FEF731FF002803D0E12103A000F073
:101B7000A7FC3EBD00240140240200202E2E2F533E
:101B800072632F6D61696E2E63000000CE0000202D
:101B900008B508484169012211434161406910407C
:101BA0000090002211460920FFF79AF90920FFF75B
:101BB0008DF908BD00100240F0B587B02548426994
:101BC000012149040A43426142690A400192426983
:101BD00049000A4342614069084001901E4D0926B0
:101BE000F606002229463046FFF71DF91B4F00225A
:101BF00003213846FFF717F91120029000240394BF
:101C0000049402A93046FFF763F802950125039575
:101C10000494059402A93046FFF75AF80320029075
:101C200003950494059402A93846FFF751F88820DB
:101C300002900394049402A93846FFF749F8102053
:101C400002900394049502A93846FFF741F807B0C3
:101C5000F0BD000000100240E09F000000040048BA
:101C600010B50F480D4901604B21C90141600021A9
:101C70008160C16001610C2242618161C1610162C8
:101C80001021416209028163FFF778FD002803D02B
:101C9000F62104A000F014FC10BD00000038014043
:101CA000700200202E2E2F5372632F6D61696E2EED
:101CB00063000000704700008307FF22DB0E9A409C
:101CC0008907090E994000280BDA0007000F083831
:101CD000830808489B001818C36993430B43C361EA
:101CE0007047830804489B001818036893430B430C
:101CF0000360704700ED00E000E400E07047000082
:101D000010B501220920D103C006FFF78CF80D4859
:101D1000022101720721417200228270012141706B
:101D200009480270094802700948017009480170A9
:101D300000F002FC084802701E2208490848FFF71C
:101D400083FD10BD040000205F0000206C00002017
:101D50006D0000206B0000206E000020920000202B
:101D60007002002070B505460C4600F041F80A4AA2
:101D7000107800F013F800F085F8284600F00EF80F
:101D800000F080F8204600F009F800F07BF800F041
:101D900061F8012070BD00006F000020F8B5044616
:101DA00000250926F6060127200602D52020B0616D
:101DB00001E02020B062200602D54020B06101E0A1
:101DC0004020B0620520FEF7FCFB08488761052033
:101DD000FEF7F7FB6006040E044887620520FEF755
:101DE000F0FB6D1CEDB2082DDED3F8BD00040048F9
:101DF000F8B50924E406206803218902884320609D
:101E0000206801218902084320602068032109031A
:101E100088432060206801210903084320602025B1
:101E2000A5614026A6610720FEF7CBFB08480127E5
:101E300087610720FEF7C5FBA562A6620720FEF7B3
:101E4000C0FB034887620720FEF7BBFBF8BD00001C
:101E50000004004870B520260924E406A662402547
:101E6000A5620720FEF7ADFB054901208861072028
:101E7000FEF7A7FBA661A5610720FEF7A2FB70BDD8
:101E80000004004870B5064C0125A5610520FEF749
:101E900098FBA5620520FEF794FB002070BD0000B2
:101EA0000004004870B504461546FFF7A1FF0B4932
:101EB0000878FFF773FFFFF7E5FF2046FFF76EFF97
:101EC000FFF7E0FF002403E0FFF7DCFF641CE4B24F
:101ED000AC42F9D3FFF7BEFF012070BD6F000020B8
:101EE00010B5401EC1B2FD20FFF73CFF122205498C
:101EF0000120FFF7D7FF902203492420FFF7D2FFEC
:101F000010BD000040270008B02600087047000000
:101F1000F8B50926F60601213046FEF77DFF1A4C7A
:101F20000025217888420FD001213046FEF774FF4A
:101F3000207001213046FEF76FFF002802D00220FA
:101F4000607001E06570A57010211048FEF764FF15
:101F50000127FF03002808D001213046FEF75CFF6F
:101F6000002802D16078002804D00122394630468A
:101F7000FEF759FF6078002805D1A5700022394688
:101F80003046FEF750FFF8BD040000200004004872
:101F900010B5FEF755FFFFF72FFB11480121017027
:101FA000104A1078401CC0B210700A2801D30020DB
:101FB00010701078002801D10B4A1170012801D14E
:101FC0000A4A1170022801D1094A1170032801D16F
:101FD000084A1170052801D10748017010BD0000A2
:101FE000070000200F00002008000020090000204A
:101FF0000A0000200B0000200E00002070B594B0F5
:102000001220089001250B950D9510200C900E9034
:1020100002261096002411940520C00412901394F7
:1020200008A8FFF7D7F8002803D0942117A000F0E4
:1020300047FA07200490059606940794012104A806
:10204000FEF7CAFF002803D0A12110A000F038FA43
:10205000009502946846FEF747FF002803D0A821A8
:102060000AA000F02DFAFFF759F87D21C900FEF70C
:1020700037F8FFF7A9FA0420FFF796FA0022114675
:10208000501EFEF72DFF14B070BD00002E2E2F53F2
:1020900072632F6D61696E2E630000001348016842
:1020A0000122114301604168114A114041600168F9
:1020B000104A1140016001680122920491430160BD
:1020C00041683F22120491434160C16A0909090134
:1020D000C162016BFF22143291430163416B4908D5
:1020E00049004163002181607047000000100240F8
:1020F0000CB8FF08FFFFF6FE10B5818CC90707D0AA
:1021000001684A6801235B049A43836A1A434A6060
:10211000818C890707D501684A6801231B049A430B
:10212000C36A1A434A60818C490707D501684A6827
:1021300001239B049A43036B1A434A60818C09076D
:1021400007D501684A680123DB039A43436B1A43AE
:102150004A60818CC90607D501688A6801231B0380
:102160009A43836B1A438A60818C890607D501687C
:102170008A6801235B039A43C36B1A438A60818C8C
:10218000490612D501684B6801221205046C93437D
:1021900023434B60016C914207D101684A680323D5
:1021A0005B059A43436C1A434A60818C090607D544
:1021B00001684A680123DB04806C9A4302434A6049
:1021C00010BD0022C266202160304172817202720D
:1021D0000020704710B5406A0022014640314A8312
:1021E0004A82FFF73AFA10BD01680A68FF232133DB
:1021F0009A430A60016860308A68520852008A6017
:1022000020218172704710B501680A6840239A4303
:102210000A60202269210A54FFF795FB002010BDB7
:10222000016860300A68C0239A430A602021417225
:10223000704710B504465C20025B6A20005D2228CE
:1022400009D0204600F024F9206881690822114352
:102250008161022010BD2068808C0123A1681B03CE
:10226000994202D12169002904D0204600F010F9DA
:10227000002010BD616D10400880606D801C60659D
:10228000F6E70000F8B50446102000210025A368F9
:102290002269E66913436269324313432268166870
:1022A0004B4F3E401E431660226853680326360398
:1022B000B343E66833435360A369226A1343226839
:1022C00096680B273F02BE431E439660414A126B3D
:1022D0009207920F06D0012A08D0022A08D0032ABA
:1022E00007D101E0002004E0022002E0042000E029
:1022F00008200122E369D203934235D100280ED091
:10230000022816D004281CD0082824D001250A0948
:1023100012010807400F10432168C8602DE0FEF746
:1023200003FF616840004A088018FDF7D9FE81B2BA
:10233000EDE76168284A48088018FDF7D1FE81B2B0
:10234000E5E7FEF701FF616840004A088018FDF7E5
:10235000C7FE81B2DBE761680122480812048018D9
:10236000FDF7BEFE81B2D2E7002808D0022811D0C6
:10237000042819D0082822D001252846F8BDFEF7E8
:10238000D3FE61684A088018FDF7AAFE216880B272
:10239000C860F2E76168114A48088018FDF7A0FE9E
:1023A000216880B2C860E8E7FEF7CEFE61684A089F
:1023B0008018FDF795FE216880B2C860DDE761688E
:1023C00048088018FDF78CFE216880B2C860D4E709
:1023D000F369FFFF001002400024F40000127A00AD
:1023E0006921095C212901D0022070470146403152
:1023F0004A8A002A12D0012382681B039A4202D122
:102400000269002A16D0C26C531CC364006812789B
:102410000285488A401E48820020704701680A6889
:1024200080239A430A6000680168402211430160DA
:1024300000207047C26C03681288D205D20D1A853D
:10244000C26C921CC264E4E710B50248FFF706F9BB
:1024500010BD00007002002070B5054600240A4837
:10246000FFF7CEF8094903E00855641CE4B26D1C7F
:1024700028780A2801D00028F6D1224603490248CC
:10248000FFF730FA70BD000070020020B00000209D
:102490005C21095C0068828C074B0A400749087878
:1024A0001A54401CC0B208701E2801D300200870C6
:1024B0000A20C87000207047920000201100002000
:1024C000FEE702E008C8121F08C1002AFAD17047CF
:1024D0007047002001E001C1121F002AFBD17047A4
:1024E000FFF70EFC134D0024E878002807D0EC70AD
:1024F000FDF73EFF072000F09BF8FFF709FD287964
:10250000002804D02C71FFF7EBFAFFF71FFA687967
:10251000002802D06C71FDF796FFA879002803D03F
:10252000AC710120FFF7DCFCE8790028DCD0EC710D
:10253000DAE70000040000200C49002008700C4974
:1025400008700C4908700C4908700C4908700C4957
:1025500008700C4908700C4908700C4908700C4947
:1025600008700C4908700C49087070475F00002023
:102570006000002061000020620000206300002055
:102580006400002065000020660000206700002035
:1025900068000020690000206A000020FEF758FC57
:1025A000FFF72CFDFFF708FBFFF7F2FAFFF79EFAA3
:1025B000FFF756FBFFF794FFFEE70000F8B5014672
:1025C00000207E22184DD2432A717F226A712F1F6C
:1025D000164E7A78B1546970521CD4B27C700021C6
:1025E0000EE004237256EB569A4200DD2A71052351
:1025F000EB569A4200DA6A71101800B2491CC9B24F
:10260000A142EED32146FDF781FD28700A2C09D3A3
:102610000020787005490A31325C0A54401CC0B26F
:102620000A28F9D3F8BD00001A000020100200208B
:10263000F1B51C4846881C49202E0FD248887D22BF
:102640001201904204D90020C043FFF7B7FFF8BD44
:10265000401C48800020FFF7B1FFF8BD00204880F3
:102660000124009D6D1E2F466F4314E020460F4A43
:10267000604339465043FDF749FD20300949620067
:1026800080B26C318852B04203D360B2FFF796FF3C
:10269000F8BD641CA4B200988442E7D368B2FFF787
:1026A0008DFFF8BD9601002016000020DF0F00000E
:1026B000FFFFFFFFFFFFFFFFFFFFFFFFFFFFFFFF2A
:1026C000FFFFFFFFFFFFFFFFFFFFFFFFFFFFFFFF1A
:1026D000FFFFFFFFFFFFFFFFFFFFFFFFFFFFFFFF0A
:1026E000FFFFFFFFFFFFFFFFFFFFFFFFFFFFFFFFFA
:1026F000FFFFFFFFFFFFFFFFFFFFFFFFFFFFFFFFEA
:10270000FFFFFFFFFFFFFFFFFFFFFFFFFFFFFFFFD9
:10271000FFFFFFFFFFFFFFFFFFFFFFFFFFFFFFFFC9
:10272000FFFFFFFFFFFFFFFFFFFFFFFFFFFFFFFFB9
:10273000FFFFFFFFFFFFFFFFFFFFFFFFFFFFFFFFA9
:10274000FFFFFFFFFFFFFFFFFFFFFFFFFFFFFFFF99
:10275000FFFF000000000000000001020304060764
:102760000809000000000102030400008C27000893
:102770000000002074000000C224000800280008A7
:1027800074000020B4060000D224000800000000FD
:102790000000000000000000000000000000000039
:1027A0000000000000000000000000000000000029
:1027B00000000000000042303035300A4230303531
:1027C000310A42303035320A42303035330A423035
:1027D0003035340A42303035350A42303035360A29
:1027E00000000000000000000001000000000000E8
:1027F0000000000000000000000000E800127A0065
:04000005080000B13E
:00000001FF
