:020000040800F2
:10000000A0080020C50000082D210008151A0008CE
:1000100000000000000000000000000000000000E0
:100020000000000000000000000000007122000835
:100030000000000000000000A9210008552300086E
:10004000D700000800000000D7000008D700000813
:10005000D7000008D7000008D7000008D700000824
:10006000000000005D050008D7000008D700000868
:10007000D7000008D7000008D700000800000000E3
:10008000D70000080000000000000000D7000008B2
:1000900000000000D7000008D7000008D7000008C3
:1000A00000000000D7000008000000000D28000834
:1000B0000348854600F050F80048004759290008D9
:1000C000A00800200448804704480047FEE7FEE7F8
:1000D000FEE7FEE7FEE7FEE761240008B100000846
:1000E00030B50B46014600202022012409E00D46D0
:1000F000D5409D4205D31D469540491B2546954058
:1001000040191546521E002DF1DC30BD70B500249B
:100110002546002801DA01244042002901DA0125A0
:100120004942FFF7DDFFAC4200D04042002C00D036
:10013000494270BDD2B201E00270401C491EFBD2A0
:1001400070470022F6E710B513460A4604461946E2
:10015000FFF7F0FF204610BD064C0125064E05E0D6
:10016000E36807CC2B430C3C98471034B442F7D3D8
:10017000FFF7A2FFE07100080072000870B50446A6
:1001800020688168490720D5816810254907002922
:1001900005DA8168890702D481682943816000F00B
:1001A000AFFE06460DE000F0ABFE801B022808D92A
:1001B000606C28436064A06C01210843A0640120A6
:1001C00070BD206880684007EDD4002070BD10B578
:1001D0000146486A426C50231A420AD1416C0122FE
:1001E0005202114341640168CA681205920F05D09A
:1001F00020E0C06B026B0846904710BD026A002ADF
:1002000018D10A68120715D58A6801235207002AF7
:1002100009DB4A680C24A2434A60416C1A029143EC
:100220001943416406E0416C202211434164816C12
:100230001943816400F024FB10BD10B5406A416C85
:10024000402211434164816C04221143816400F017
:1002500019FB10BD10B5406A00F013FB10BDF8B5D6
:100260000446206881688907890F012930D1016817
:10027000C90702D1C16809042AD581680522114045
:1002800010250126012907D0606C28436064A06C0A
:100290003043A0640120F8BD8168022211438160CF
:1002A00021680320086000F02BFE07460CE000F0F8
:1002B00027FEC01B022807D9606C28436064A06C2D
:1002C0003043A0640120F8BD20688068C007EED1EB
:1002D0000020F8BDF8B50446002000902068816831
:1002E0008907890F012905D10168C90737D1C1687C
:1002F000090434D481681B4A1026114001250029C5
:1003000007D0606C30436064A06C2843A064012077
:10031000F8BD816829438160144813490068FFF7DC
:10032000DFFE009002E00098401E00900098002838
:10033000F9D100F0E5FD07460CE000F0E1FDC01B3F
:10034000022807D9606C30436064A06C2843A06425
:100350000120F8BD20680068C043C007EDD100202F
:10036000F8BD00001700008040420F00640000202C
:1003700070B51848017800292BD00021017016486B
:1003800000F0DAFB002803D04B2114A002F07AFA27
:100390000020164A154664354100535A6B52401CE2
:1003A000C0B23228F8D3322210490B4800F072FB59
:1003B000002803D0512109A002F064FA0024600053
:1003C000295A0A48C83000F013F8641CE4B2322CF1
:1003D000F5D370BD160000209C0300202E2E5C413A
:1003E00070705C685F6164632E630000C20000206F
:1003F00070B50446002200232380501EA080E088B0
:10040000400000190181E088401C80B2E080322861
:1004100000D3E3800020410009190B892588AB42F5
:1004200000D923800B89A588AB4200D2A38009891B
:100430008A18401CC0B23228EDD332211046FFF793
:100440004FFE608070BD10B500F002F810BD0000D6
:10045000F8B53E4A3E4B107800241F461E378446AE
:100460000DE00A21D17091783E5C4D1C95705E5470
:100470003C54401CC0B250701E2800D354705078B9
:100480008445EED1D07800285DD0401E0006000ED5
:10049000D07025D11878012702262E4D422808D188
:1004A0005978302905D19978302902D1D978352960
:1004B00004D000282ED0492833D035E018792649B9
:1004C00030280ED0312818D0322818D0332818D030
:1004D000342819D035281AD0362801D106200870C2
:1004E000F8BD0C7009200121C00600F0FBFC0128BA
:1004F00001D02C70F8BD2E70F8BD0F70F8BD0E70D5
:10050000F8BD03200870F8BD04200870F8BD052070
:100510000870F8BD2878002801D02C700DE02F70ED
:100520000BE05978492902D0492802D005E02E7005
:1005300003E05878412800D12C7094701E210448A3
:10054000FFF7FFFDF8BD9470F8BD00001200002019
:1005500068000020050000200600002010B50348B8
:1005600000F061FB02490120087010BD5804002012
:100570001600002010B504460549206840181421D3
:10058000FFF7AEFD800020640248E06310BD00006C
:10059000F8FFFDBF0000024030B5056C0124AC40FF
:1005A000C56B6C60046863604368102B04D00368FB
:1005B00099600068C26030BD03689A600068C160DD
:1005C00030BD01E0401EC0B20028FBD170470000E2
:1005D00010B519480078002810D0012813D002283F
:1005E00016D0032819D004281CD005281FD00628AF
:1005F00003D102F0CBF901F0C5FB10BD01F0BAFD4B
:1006000001F0C0FB10BD01F075FE01F0E3FB10BD71
:1006100002F074F901F0B6FB10BD00F00FF801F024
:10062000D9FB10BD01F0E0FC01F0ACFB10BD02F005
:10063000A2F901F0A7FB10BD0600002070B5144A16
:100640001078401CC0B21070917888421ED30021EF
:1006500011705078401CC0B25070712800D3517096
:10066000002150780B4B3C220B4D5043C418002006
:100670008A008A185319A218165C1E54401CC0B276
:100680000528F9D3491CC9B20C29F0D370BD00006C
:100690005D000020CC4000086802002010B5002456
:1006A0001021044800F01EFC002800D1022420463E
:1006B00010BD000000040048F8B504460026254699
:1006C00040352878012808D00120287020688168EA
:1006D0008907890F012908D101E00220F8BD0168CE
:1006E000C90738D1C168090435D4616CFF220132D1
:1006F0009143022211436164C1688907890F009107
:10070000C16889088900C160206881689207114327
:10071000816000F0F5FB07460EE000F0F1FBC01B26
:10072000022809D9606C02218843102108436064C3
:10073000002028700120F8BD206880680028ECDBCC
:100740002068C168009A1143C160606C8008800015
:10075000401C606404E0606C202108436064012652
:10076000002028703046F8BDF8B500250022009220
:10077000044640342278012A39D0012323700268CC
:10078000966876076AD43A4F4E68BE4250D0966A51
:100790000F78BB401E4396620123826B1B079A426F
:1007A0001FD0012A1DD0022A1BD0032A19D0042AE7
:1007B00017D0052A15D0062A13D0072A11D00268AF
:1007C0008B6856697607760FB3420AD05369DB0807
:1007D000DB005361006842690B7A5B075B0F1A43C9
:1007E00042610868102804D0112802D03BE00220A2
:1007F000F8BD204B9A68102807D0012080050243DD
:100800009A600868102803D02DE00120C005F6E7A3
:100810001A4819490068FFF763FC0A214843009011
:1008200002E00098401E009000980028F9D11AE0DC
:10083000906A0E78B340984390620868102801D0FF
:10084000112810D10B498A68102804D00120800596
:1008500082438A6007E00120C005F9E7416C20224D
:10086000114341640125002020702846F8BD000096
:10087000011000000027014040420F0064000020EA
:100880007047704770470000F8B504460025002CFB
:1008900003D0606C002802D008E00120F8BD0020E1
:1008A000A06440210855204600F0AAF8606C102290
:1008B000C006002870DB2068816849076CD4616C31
:1008C0001301994302231943616481688907890FE1
:1008D000012905D10168C9070FD1C16809040CD4E9
:1008E000C16818239943A3681943C160206801694E
:1008F000636889008908194301612068C1683E4B1B
:100900001940C160A0698103E069C0030143206A06
:1009100043031943636B012B02D001231B0300E047
:1009200000231943E36819432369022B09D00023EC
:100930001943236B5B001943666A0123012E02D021
:100940000AE00423F4E7002827D0606C2026304317
:100950006064A06C1843A064A06A0646FF3EC23ED5
:1009600002D0E66A304301432068C6680E43C66081
:100970000126A06B3607B04213D0012811D00228FF
:100980000FD003280DD004280BD0052809D0062845
:1009900007D0072805D010E027E00120000401431C
:1009A000DAE720684669F608F6004661206846697D
:1009B000278F7F077F0F3E4346612068C0680F4E38
:1009C0003040884207D10020A064606C800880001D
:1009D000401C60640DE0606C022188431043606439
:1009E000A06C1843A064012503E0606C10436064B0
:1009F00001252846F8BD00001902FEFFE7FF3F83EE
:100A000070B586B006461849306888422AD1174822
:100A1000826941150A438261806908400090022082
:100A200001900320029000250395092001A9C0062A
:100A300000F0B4F90F4C0E4820606560A56080207E
:100A4000E0604000206180006061A561E5612046B2
:100A500000F03EF9002803D0682107A001F012FF42
:100A6000F463666206B070BD0024014000100240CD
:100A700008000240580400202E2E2F5372632F735B
:100A8000746D3332663078785F68616C5F6D737057
:100A90002E630000F7B504460025206880684007F3
:100AA0003ED426464036307801280BD001273770D7
:100AB000E069012803D02046FFF70CFC0546002D15
:100AC00002D02EE00220FEBD606C17490840FF21D5
:100AD0000131084360640020A0643070E16B13486A
:100AE0008862E16B1248C862E16B124808632168B2
:100AF0001C20086020684168102211434160206872
:100B0000C1683943C1602168E06B4031029B019AA2
:100B100000F00AF92068816804221143816000E036
:100B200002252846FEBD0000FEF1FFFFCF010008B0
:100B3000550200083B020008F8B504462646403638
:100B40003078012808D0012737702046FFF716FBC0
:100B50000546280002D028E00220F8BD2068C168C0
:100B600049084900C160E06B00F023F80546280001
:100B700003D0606C40210843606420684168102203
:100B800091434160002D05D02046FFF768FB002D02
:100B900005D00AE02046FFF762FB0546F7E7606CE8
:100BA000FF210131884338436064002030702846BB
:100BB000F8BD01680A680E239A430A6001680A6852
:100BC000520852000A600123026C19469140C26B20
:100BD000516020304370002101700020704770B5D3
:100BE0000024014620314A78022A03D0042181637F
:100BF000012416E0026813680E25AB4313600268F7
:100C000013685B085B0013600125036C2A469A4059
:100C1000C36B5A604D7000220A70416B002900D0EE
:100C20008847204670BDF0B4C16B0B6801680C6842
:100C30000422056C1646AE401E4210D066070ED543
:100C40000B689B0602D40B6893430B60016C8A40CF
:100C5000C16B4A60C16A002938D0F0BC084702273E
:100C60003E46AE4002461E402032002E15D0A6075A
:100C700013D50B689B0605D40B680A24A3430B60AD
:100C800001215170016C8F40C16B4F6000211170C8
:100C9000816A00291AD0F0BC08470826AE401E42DF
:100CA00014D0230712D50B680E24A3430B60012137
:100CB000046C0B46A340C46B6360816351700021D8
:100CC0001170016B002901D0F0BC0847F0BC7047DF
:100CD00070B50446002C23D00220254620356870CC
:100CE000206801680F4A1140A368626826691A43A8
:100CF000E36833431A4363691A43A3691A43E369F8
:100D00001A430A4302602046FFF734FC0020A06229
:100D1000E06220636063A06301216970287070BD88
:100D2000012070BD0FC0FFFFF8B504468C460025BA
:100D3000204620300178012909D001260670477825
:100D40000021012F05D0017002252846F8BD0220A0
:100D5000F8BD02274770A16320680168490849006F
:100D6000016061462046FFF717FCE06A002805D0C5
:100D7000206801680E221143016009E020680168C3
:100D80000A22114301602068016804229143016036
:100D90002068016831430160D7E70000F8B5002200
:100DA0008EE001249440A4462340002B7ED04C6862
:100DB000022C01D0122C0CD1D408A40027183D6AB3
:100DC0005407E40E0F26A640B5430E69A6402E43F5
:100DD0003E62076855000324AC40A7430E79B6076E
:100DE000B60FAE403E4306604E68012E05D0022E7F
:100DF00003D0112E01D0122E0ED18768A743CE68E2
:100E0000AE403E43866047686646B7430E79F606B5
:100E1000F60F96403E434660C668A6438C68AC40D9
:100E20003443C4604C68E40049D5284CA5690126C8
:100E30003543A561A469344000949508244CAD0065
:100E40002F19BD689407240F0F26A640B543092625
:100E5000F606B04201D100260FE01E4EB04201D18D
:100E600001260AE01C4EB04201D1022605E01B4ECD
:100E7000B04201D1032600E00526A6402E43BE6005
:100E8000174D2C689C434E68F60300D51C432C601C
:100E90006C689C434E68B60300D51C436C60AC681C
:100EA0009C434E68F60200D51C4300E007E0AC60AE
:100EB000EC689C434E68B60200D51C43EC60521CA3
:100EC0000B681C46D44000D06BE7F8BD0010024010
:100ED000000001400004004800080048000C0048E1
:100EE000000401400069084201D001207047002041
:100EF0007047002A01D0816170478162704700000D
:100F000001480068704700000000002002480168A6
:100F1000491C0160704700000000002010B5064821
:100F20000168102211430160002000F007F800F072
:100F300017F8002010BD00000020024010B5044644
:100F400000F052F97D21C900FFF7CAF800F0A2FBBA
:100F500000222146501E00F029F8002010BD00009C
:100F600008B50C48816901221143816180691040F4
:100F7000009000221146501F00F018F80022114680
:100F8000901E00F013F800221146501E00F00EF8DB
:100F900008BD000000100240C106C90E01208840B3
:100FA000014908607047000000E100E010B501F061
:100FB000BFF810BDF8B504462068374DC00356D5BC
:100FC0000026E869C00007D4E86929040843E861FD
:100FD000E86908400090012630480168C90513D42B
:100FE000014608688A1510430860FFF789FF074625
:100FF00006E0FFF785FFC01B642801D90320F8BD78
:1010000026480068C005F4D5286A03210902084073
:1010100000281FD062680A4082421BD0286A884399
:101020002A6A012109040A432A622A6A8A432A6237
:101030002862C0070ED0FFF763FF074607E0FFF7FF
:101040005FFFC11B1648814201D90320F8BD286A01
:101050008007F4D5286A03210902884361680843A0
:101060002862012E03D1E86931078843E8612078BE
:10107000C00705D0286BA16880088000084328635A
:101080002078800605D5286B10218843E168084345
:1010900028630020F8BD00000010024000700040EE
:1010A00088130000F8B504460E464A480068C00799
:1010B000C00FB0420CD2474801684908490031438B
:1010C00001600068C007C00FB04201D00120F8BD28
:1010D0002078414F800705D57868F0218843A168C2
:1010E000084378602078C00749D06068012806D09E
:1010F000022809D0396889070BD40120F8BD396866
:10110000890306D40120F8BD3968890101D4012082
:10111000F8BD79688908890001437960FFF7F0FE1E
:101120000546606801280AD0022816D023E0FFF7A0
:10113000E7FE411B2948814201D90320F8BD7868A8
:101140000007800F0128F2D119E0FFF7D9FE411BFB
:101150002248814201D90320F8BD78680007800F3A
:101160000228F2D10BE0FFF7CBFE411B1B48814266
:1011700001D90320F8BD78680007800FF3D1154826
:101180000168C907C90FB1420BD901684908490074
:10119000314301600068C007C00FB04201D0012098
:1011A000F8BD2078400706D57868072109028843F2
:1011B000E1680843786000F02DF87968084A09066C
:1011C000090F515CC840074908600020FFF7B6FED0
:1011D0000020F8BD002002400010024088130000EB
:1011E000C8710008640000200148006870470000D2
:1011F0006400002000B5FFF7F7FF04494968044A7E
:101200004905490F515CC84000BD00000010024074
:10121000D871000810B588B016A0436802688168CC
:10122000C068059304920691079016A001460EC966
:10123000C0686C460EC40390164B5A680C201146C9
:101240000140154804290FD008290DD19102090F3A
:1012500004AC645CD96A6B460907090F595CD20378
:1012600004D5FEF73DFF604308B010BD0B48604356
:10127000FAE7000002030405060708090A0B0C0D33
:101280000E0F10100102030405060708090A0B0CD3
:101290000D0E0F100010024000127A0000093D00F0
:1012A000FEB504462078F04DC00756D068680007A8
:1012B000800F012807D068680007800F02280AD134
:1012C0006868C00307D52868800346D56068002891
:1012D00043D10120FEBD012160680904012811D01D
:1012E0008A00002812D0052817D028688843286073
:1012F0002868904328606068002820D0FFF700FE2F
:10130000064618E0286808432860F4E72868884300
:101310002860286890432860EDE72868104328601B
:10132000286808432860E6E7FFF7EAFD801B642889
:1013300001D90320FEBD28688003F5D50DE0FFF735
:10134000DFFD064606E0FFF7DBFD801B642801D9C0
:101350000320FEBD28688003F5D42078012680078D
:10136000002849DA68680007800F07D0686800071E
:10137000800F022812D16868C0030FD42868800744
:1013800004D5E068012801D00120FEBD2868F821BD
:1013900088432169C900084328602DE0E0680028DF
:1013A00018D0286830432860FFF7AAFD074606E0FA
:1013B000FFF7A6FDC01B022801D90320FEBD286847
:1013C0008007F5D52868F82188432169C9000843BA
:1013D000286011E02868400840002860FFF790FD71
:1013E000074606E0FFF78CFDC01B022801D9032049
:1013F000FEBD28688007F5D42078000726D5E0696F
:10140000002811D0686A30436862FFF779FD07460B
:1014100006E0FFF775FDC01B022801D90320FEBDC1
:10142000686A8007F5D511E0686A40084000686284
:10143000FFF766FD074606E0FFF762FDC01B0228C6
:1014400001D90320FEBD686A8007F5D420780427FF
:101450004007002871DA00200190E869C00008D434
:10146000E969B8060143E961E96901400091012099
:1014700001907E480168C90513D4016882151143A3
:101480000160FFF73DFD029007E0FFF739FD02998B
:10149000401A642801D90320FEBD74480068C005C5
:1014A000F3D5A068012811D0002813D0052819D041
:1014B000286A400840002862286AB8432862A06869
:1014C000002823D0FFF71CFD02901BE0286A304360
:1014D0002862F4E7286A400840002862286AB84376
:1014E0002862ECE7286A38432862286A3043286279
:1014F000E5E7FFF705FD0299411A5D48814201D9F0
:101500000320FEBD286A8007F3D50FE0FFF7F8FC43
:10151000029008E0FFF7F4FC0299411A5448814216
:1015200001D90320FEBD286A8007F3D40198012861
:1015300003D1E96900078143E9612078C00640D5FD
:10154000606901280CD0401D26D0686B3843686361
:10155000686B400840006863FFF7D2FC06462DE048
:10156000686B38436863686B30436863FFF7C8FC97
:10157000064606E0FFF7C4FC801B022801D90320C1
:10158000FEBD686B8007F5D5686BF8218843A169BB
:10159000C9000843686314E0686BB8436863686B0C
:1015A000F8218843A169C9000843686309E0FFF78F
:1015B000A7FC801B022801D90320FEBD686B8007B1
:1015C000F5D4206A00284BD069680907890F0229E1
:1015D00048D001273F06022806D02868B843286073
:1015E000FFF78EFC044638E02868B8432860FFF710
:1015F00087FC064606E0FFF783FC801B022801D922
:101600000320FEBD28688001F5D4E86AE16A00097C
:1016100000010843E862616AA06A084369683D22E4
:101620001204914308436860286838432860FFF734
:1016300067FC044606E0FFF763FC001B022801D9A3
:101640000320FEBD28688001F5D509E0FFF758FCAE
:10165000001B022801D90320FEBD28688001F5D4B3
:101660000020FEBD0120FEBD0010024000700040C1
:101670008813000004220549042803D00869904318
:1016800008617047086910430861704700E000E096
:101690007047000010B50949401E884201D9012059
:1016A00010BD074C60610321081F00F041FD0020C0
:1016B000A06107202061002010BD0000FFFFFF0097
:1016C00000E000E010B5FFF7E3FF10BD70B5044681
:1016D000204660300546407A21280FD12068816875
:1016E00009060BD58168802291438160206E002815
:1016F00001D0FFF75EFA204600F074FFA87A222896
:101700000FD12068816849060BD58168402291433A
:101710008160606E002801D0FFF74BFA204600F090
:1017200045FF002070BD7047F8B504462368D869AE
:10173000196805072D0F002D07D1820605D58A06E9
:1017400003D5204600F057FFF8BD9A68002D68D0F9
:10175000D507ED0FFF2621360E402E4361D0C60778
:1017600006D0CE0504D501261E62E36E3343E36640
:10177000860702230427002E06DAD60704D026683F
:101780003362E66E3E43E666460706D5D20704D0CE
:1017900022681762E26E1A43E266020709D5202228
:1017A0000A402A4305D0236808221A62E36E1343D5
:1017B000E366E26E002AC7D0800604D5880602D50B
:1017C000204600F018FFE06E000703D42068806810
:1017D000400620D5204600F0E9FE206881684906D1
:1017E00015D58168402291438160606E00280AD03F
:1017F00014494163606EFFF7F2F90028A4D0606ECF
:10180000416B8847F8BD2046FFF78DFFF8BD2046A5
:10181000FFF789FFF8BD2046FFF785FF0020E0664F
:10182000F8BD020605D50A0603D5204600F0BAFF2A
:10183000F8BD4006FCD54806FAD5204600F0C5FEA6
:10184000F8BD00009925000870B50446002C05D0AD
:1018500025466035687A002802D006E0012070BD78
:1018600000202872204600F029F8242068722068A1
:101870000168490849000160204600F0E5FE0128A2
:1018800019D0606A002802D0204600F017FE2068B8
:1018900041680122D2029143416020688168082298
:1018A0009143816020680168012211430160204654
:1018B00000F069FE70BD012070BD000000B587B06A
:1018C0000068124988421FD11148826901218903A9
:1018D0000A4382618069084001900C200290022036
:1018E0000390002004900320059001200690092019
:1018F00002A9C006FFF752FA002211461B20FFF78B
:1019000055FB1B20FFF748FB07B000BD0038014026
:101910000010024070B5034660339C7A202C01D041
:10192000022070BD00290AD0002A08D00125846851
:101930002D03AC4209D10669002E02D005E001203A
:1019400070BDCE0701D0012070BD1E7A012E0ED0D1
:1019500001261E724165014640310A834A83FF22F7
:10196000AC4209D10469002C03D08A830BE0022029
:1019700070BD0E4A8A8306E0002C04D10469002C55
:1019800012D07F228A830021C16622229A721972A4
:1019900001688A6832438A6000680168FF22213248
:1019A00011430160002070BD8A83ECE7FF01000055
:1019B00030B5034660335C7A202C01D0022030BD64
:1019C00000290AD0002A08D0012584682D03AC42E2
:1019D00009D10469002C02D005E0012030BDCC07FC
:1019E00001D0012030BD1C7A012C10D0C164014609
:1019F00040310A824A820021C16621225A7219723C
:101A000000680168802211430160002030BD02207F
:101A100030BD7047FEE700000920C00601680322C0
:101A20009202914301600168012292021143016018
:101A3000016803221203914301600168012212032D
:101A40001143016001680322920391430160016820
:101A500001229203114301600168032212049143A1
:101A6000016001680122120411430160202181619B
:101A7000402181618021816149008161014901200A
:101A80008861704700040048F0B501460023092230
:101A900020264027D206154D0124080601D596615F
:101AA00000E09662080601D5976100E0976208069B
:101AB00002D58020906101E080209062080603D565
:101AC000FF200130906102E0FF2001309062002091
:101AD000FEF777FDAC610020FEF773FD4806010EAE
:101AE000AC625B1CDBB2082BD7D3F0BD000400480E
:101AF000F0B500211A4A194B092412188027E40670
:101B00000125184E203A1B18203BD87F000603D52C
:101B1000A7612020A06102E0A7622020A062D07F00
:101B2000000605D5FF200130A0614020A06104E03F
:101B3000FF200130A0624020A0620020FEF741FD9E
:101B4000B561D87F4000D877D07F4000D077B562AC
:101B5000491CC9B20829D8D3F0BD000008030020F1
:101B60002C0300200004004800B5FFF755FF20219A
:101B70000920C00681624021816280218162490082
:101B800081620020FEF71DFD01490120886200BD31
:101B90000004004870B520240921C9068C62402544
:101BA0008D6280228A6253008B620020FEF709FD5D
:101BB000054E0120B0610020FEF703FD8C618D61B0
:101BC0008A618B6170BD00000004004800B50449C3
:101BD00001228A610020FEF7F4FC8A62002000BD29
:101BE00000040048F8B52D4C4B27A078FF000025D5
:101BF0002B4E002834D020790122422802D0C2285E
:101C00002ED125E0274B264819780078022902D0EA
:101C1000012907D00AE0401CC0B23070062805D95F
:101C2000357003E0002811D035701D701E48027019
:101C30002189B94214D105702581307806214843A5
:101C400016490A31401800F0E9FD09E03270EDE76D
:101C5000E079322804D215480178012915D00270A4
:101C600011490878002813D02089401C80B22081B7
:101C7000B84209D90D7025813078062148430749BB
:101C80000A31401800F0CAFDF8BD03210170E7E7F2
:101C90002089B842F8D2401C2081F8BD20000020E5
:101CA0000600002005000020110000200C0000208C
:101CB00070B5304C0026A6702378834201D0207086
:101CC00070BD2C496078CA7849790125834230D1AA
:101CD0000028F5D0A379002BF2D05B1E1B061B0E4B
:101CE000A371EDD12071002A00D1A570002912D076
:101CF0001422012916D0022901D00329E0D10321A1
:101D00006171802108432071A271E079FA28D7D24D
:101D1000401CE07170BD65712021084320713220A4
:101D2000A07170BD02216171602108432071A27110
:101D300070BD002817D02071002A00D1A57001299C
:101D400008D00C48C02240781043022906D003294D
:101D500007D105E040210843207102E0207100E036
:101D60002071667101E0E670E6710520A071637074
:101D700070BD00002000002010B5FEF78FFCFFF7BB
:101D800097FF10BDF0B5002200200E4B11460A242B
:101D90006143CF180D4B0C4D0D4CCB18395C2429E9
:101DA00002D21E5C6E5403E061181E5C40390E774F
:101DB000401CC0B20A28F1D3521CD2B2062AE3D387
:101DC000F0BD0000982C0008080300202C02002021
:101DD0002C030020F0B5002200200D4B910051187B
:101DE000CF180D4B0B4D0D4CCB18395C242902D26A
:101DF0001E5C6E5403E061181E5C40390E77401C77
:101E0000C0B20528F1D3521CD2B20C2AE4D3F0BDE3
:101E1000D42C000808030020680200202C030020B6
:101E20003EB522482049016049054160002181609A
:101E3000C16001240461082242618161C1610462C0
:101E40004162FF22C2328262C16201634163FEF7D6
:101E50001BFD002803D0CF2115A000F013FD009436
:101E60000120000301900720029069460F48FEF709
:101E70007BFC002803D0D9210DA000F003FD0B4806
:101E8000FEF71AFC002803D0DD2109A000F0FAFCBF
:101E900032220B490548FEF7FDFD002803D0E12161
:101EA00003A000F0EFFC3EBD002401409C03002095
:101EB0002E2E2F5372632F6D61696E2E630000000A
:101EC000C200002008B50848416901221143416160
:101ED000406910400090002211460920FFF766F883
:101EE0000920FFF759F808BD00100240F0B587B08F
:101EF00025484269012149040A43426142690A4076
:101F00000192426949000A434261406908400190D8
:101F10001E4D0926F606002229463046FEF7E9FF47
:101F20001B4F002203213846FEF7E3FF11200290E9
:101F300000240394049402A93046FEF72FFF029573
:101F4000012503950494059402A93046FEF726FF67
:101F50000320029003950494059402A93846FEF7E5
:101F60001DFF082002900394049402A93846FEF74E
:101F700015FF102002900394049502A93846FEF73D
:101F80000DFF07B0F0BD000000100240E09F000010
:101F90000004004810B50F480D4901604B21C901EC
:101FA000416000218160C16001610C224261816158
:101FB000C16101621021416209028163FFF744FCA3
:101FC000002803D0F62104A000F05CFC10BD000046
:101FD00000380140E80300202E2E2F5372632F6D2E
:101FE00061696E2E63000000F0B54A4C0120205656
:101FF0000027411C484A494B002906D0E157884236
:1020000031DA1F710F20987037E0002100200A2478
:102010004C43A4182754401CC0B20A28FAD3491CC8
:10202000C9B20629F2D31878044600213C4D56184F
:102030002D5C2036B574401CC0B20C2800D30020A3
:10204000491CC9B20A29F1D35878401CC0B2587053
:10205000322806D35F70641CE0B218700C2800D3DD
:102060001F701F71F0BD884203D11F710A20987044
:1020700003E00120187105209870D878401CC0B288
:10208000D87099788842EDD3DF701879002820D075
:1020900000212248234A85793C2328465843861844
:1020A00000200A221C4C4A4313461219F418235CE0
:1020B0001354401CC0B20A28F9D3491CC9B20629DE
:1020C000EED36D1C1549E8B288713728CAD38F71D9
:1020D000F0BD00211148144C45793C232846584353
:1020E000061900200A224A430B4BB418D218235C6D
:1020F0001354401CC0B20A28F9D3491CC9B206299E
:10210000EFD36D1C0549E8B248711D28E0D34F712B
:10211000F0BD00001A0000202C0200205600002014
:10212000C0400008102D0008F43900087047000076
:102130008307FF22DB0E9A408907090E9940002889
:102140000BDA0007000F0838830808489B001818AE
:10215000C36993430B43C3617047830804489B00E2
:102160001818036893430B430360704700ED00E0C9
:1021700000E400E070B500210A4D00222E463C36F6
:1021800000200A234B435C198B00CB189B19225467
:102190001A54401CC0B20A28F9D3491CC9B20629F6
:1021A000EED370BD2C0200207047000010B5012254
:1021B0000920D103C006FEF79CFE084802210172E7
:1021C00007214172002181700121417081721E221C
:1021D00003490448FFF79EFB10BD000004000020E7
:1021E00086000020E803002010B500F007F8024840
:1021F00000F01CF810BD0000500300200020094929
:1022000000220A54401CC0B24B28FAD32620064AAA
:1022100012780A54401CC0B24A28FAD30120087030
:1022200070470000500300200D00002070B50546E7
:10223000FFF79AFC7820FFF727FCFFF7C7FC002088
:10224000FFF722FCFFF7C2FC0024601E242803D203
:102250002046FFF74DFC02E0285DFFF715FCFFF775
:10226000B5FC641CE4B24B2CEFD3FFF793FC70BDBC
:1022700070470000F8B50926F60601213046FEF742
:1022800031FE1A4C0025217888420FD001213046BA
:10229000FEF728FE207001213046FEF723FE0028BD
:1022A00002D00220607001E06570A5701021104816
:1022B000FEF718FE0127FF03002808D00121304651
:1022C000FEF710FE002802D16078002804D0012219
:1022D00039463046FEF70DFE6078002805D1A5701E
:1022E000002239463046FEF704FEF8BD0400002007
:1022F0000004004870B5144A1078401CC0B2107039
:102300009178884208D3002111705078401CC0B2E7
:102310005070602800D35170002150780B4B3C2244
:102320000B4D5043C41800208A008A185319A21874
:10233000165C1E54401CC0B20528F9D3491CC9B212
:102340000C29F0D370BD000060000020485B00083D
:102350006802002010B5FEF7D9FDFFF7B3F9114868
:1023600001210170104A1078401CC0B210700A2878
:1023700001D3002010701078002801D10B4A117091
:10238000012801D10A4A1170022801D1094A1170AD
:10239000032801D1084A1170052801D107480170AE
:1023A00010BD0000070000201000002008000020E1
:1023B000090000200A0000200B0000200F00002070
:1023C00070B594B01220089001250B950D95102042
:1023D0000C900E9002261096002411940520C00443
:1023E0001290139408A8FEF75BFF002803D09421F5
:1023F00017A000F047FA072004900596069407946A
:10240000012104A8FEF74EFE002803D0A12110A050
:1024100000F038FA009502946846FEF7CBFD0028DC
:1024200003D0A8210AA000F02DFAFEF7DDFE7D21E1
:10243000C900FDF755FEFFF72DF90420FFF71AF943
:1024400000221146501EFEF7B1FD14B070BD000011
:102450002E2E2F5372632F6D61696E2E6300000064
:10246000134801680122114301604168114A11407B
:1024700041600168104A1140016001680122920424
:102480009143016041683F22120491434160C16A57
:1024900009090901C162016BFF22143291430163F2
:1024A000416B490849004163002181607047000089
:1024B000001002400CB8FF08FFFFF6FE10B5818C3B
:1024C000C90707D001684A6801235B049A43836AFD
:1024D0001A434A60818C890707D501684A6801233D
:1024E0001B049A43C36A1A434A60818C490707D583
:1024F00001684A6801239B049A43036B1A434A60AC
:10250000818C090707D501684A680123DB039A43D8
:10251000436B1A434A60818CC90607D501688A68F3
:1025200001231B039A43836B1A438A60818C8906BB
:1025300007D501688A6801235B039A43C36B1A437A
:102540008A60818C490612D501684B680122120508
:10255000046C934323434B60016C914207D10168A3
:102560004A6803235B059A43436C1A434A60818C93
:10257000090607D501684A680123DB04806C9A4389
:1025800002434A6010BD0022C266202160304172C1
:10259000817202720020704710B5406A0022014625
:1025A00040314A834A82FFF7BEF810BD01680A68CD
:1025B000FF2321339A430A60016860308A68520819
:1025C00052008A6020218172704710B501680A6844
:1025D00040239A430A60202269210A54FFF719FA1E
:1025E000002010BD016860300A68C0239A430A6069
:1025F00020214172704710B504465C20025B6A20BE
:10260000005D222809D0204600F024F92068816965
:10261000082211438161022010BD2068808C0123B3
:10262000A1681B03994202D12169002904D02046E8
:1026300000F010F9002010BD616D10400880606D41
:10264000801C6065F6E70000F8B504461020002104
:102650000025A3682269E669134362693243134384
:10266000226816684B4F3E401E431660226853682E
:1026700003263603B343E66833435360A369226AF3
:102680001343226896680B273F02BE431E439660A1
:10269000414A126B9207920F06D0012A08D0022AF3
:1026A00008D0032A07D101E0002004E0022002E064
:1026B000042000E008200122E369D203934235D1CF
:1026C00000280ED0022816D004281CD0082824D0B8
:1026D00001250A0912010807400F10432168C8604C
:1026E0002DE0FEF787FD616840004A088018FDF77D
:1026F000F7FC81B2EDE76168284A48088018FDF7C9
:10270000EFFC81B2E5E7FEF785FD616840004A080D
:102710008018FDF7E5FC81B2DBE76168012248081B
:1027200012048018FDF7DCFC81B2D2E7002808D043
:10273000022811D0042819D0082822D001252846C3
:10274000F8BDFEF757FD61684A088018FDF7C8FC20
:10275000216880B2C860F2E76168114A48088018B1
:10276000FDF7BEFC216880B2C860E8E7FEF752FDC5
:1027700061684A088018FDF7B3FC216880B2C86020
:10278000DDE7616848088018FDF7AAFC216880B27F
:10279000C860D4E7F369FFFF001002400024F40092
:1027A00000127A006921095C212901D002207047BA
:1027B000014640314A8A002A12D0012382681B0355
:1027C0009A4202D10269002A16D0C26C531CC3641B
:1027D000006812780285488A401E488200207047AF
:1027E00001680A6880239A430A60006801684022F1
:1027F0001143016000207047C26C03681288D20543
:10280000D20D1A85C26C921CC264E4E710B502486E
:10281000FEF78AFF10BD0000E803002070B50546F2
:1028200000240A48FEF752FF094903E00855641CDA
:10283000E4B26D1C28780A2801D00028F6D122467F
:1028400003490248FFF7B4F870BD0000E803002018
:10285000A40000205C21095C0068828C074B0A40C0
:10286000074908781A54401CC0B208701E2801D3CA
:10287000002008700A20C8700020704786000020E1
:1028800012000020FEE702E008C8121F08C1002A5B
:10289000FAD170477047002001E001C1121F002AE1
:1028A000FBD17047FFF782FC134D0024E878002825
:1028B00007D0EC70FDF75CFD072000F091F9FFF701
:1028C000D9FC2879002804D02C71FFF755FAFFF7BE
:1028D00089F96879002802D06C71FDF7B4FDA879F8
:1028E000002802D0AC71FDF773FEE8790028DDD036
:1028F000EC71FFF779FCD9E704000020F0B5134F25
:102900003878401CC0B2387014281ED300217D785E
:102910000F4A3C206843861800200A220D4C4A4387
:1029200013461219F418235C1354401CC0B20A2831
:10293000F9D3491CC9B20629EED36D1CE8B20021B7
:102940007870372800D379703970F0BD54000020BA
:10295000102D00082C020020FEF7E0FAFFF730FDF2
:10296000FFF7C4FAFFF7AEFAFFF75AFAFFF712FBC8
:10297000FFF798FFFEE710B50024204600F0AAF804
:10298000641CE4B20A2CF8D310BD000070B500241A
:102990000F4E052503212046FDF7A2FB002913D089
:1029A0000021681A0A22504380190219203AD27F66
:1029B0000255491CC9B20629F3D300F051F9641C31
:1029C000E4B20A2CE6D370BD204600F083F8F6E7A7
:1029D000A4020020F8B5014600207E22184DD24303
:1029E0002A717F226A712F1F164E7A78B15469704E
:1029F000521CD4B27C7000210EE004237256EB56B8
:102A00009A4200DD2A710523EB569A4200DA6A7178
:102A1000101800B2491CC9B2A142EED32146FDF7FD
:102A200075FB28700A2C09D30020787005490A31FB
:102A3000325C0A54401CC0B20A28F9D3F8BD000029
:102A40001A0000200402002010B50022044B0A24C2
:102A50005443E4182154521CD2B2062AF7D310BDB5
:102A6000A402002030B50F4900250A560E490F4B2D
:102A70004D574100CC180E498000411801202056C6
:102A80000723801AAA4207DA002800DA4042181AFF
:102A9000C200101A488030BD002800DA4042181ADF
:102AA000488030BD0E0200201A00002018020020CD
:102AB000E00200200188491C89B2018042889142CD
:102AC00001D3002101800088002801D00120704737
:102AD00000207047F0B504463E483F4B0157A00028
:102AE0004A1CC718002A67D03C4B6500EE1801202D
:102AF0005A573056824226DA814205DD2046FFF7DA
:102B0000B1FF3448005D70703846FFF7D3FF0028EE
:102B100018D13248415D491C4AB2425500202E4B23
:102B20003C3B824201DD012100E000210D02691AD7
:102B30000A254543ED182955401CC0B20628F0D39C
:102B400000F08EF8F0BD824226DD814205DA204693
:102B5000FFF788FF1F48005D70703846FFF7AAFF37
:102B60000028EFD11D48415D491E4AB24255002060
:102B7000194B3C3B824201DD012100E000210D02A6
:102B8000691A0A254543ED182955401CC0B206288C
:102B9000F0D300F065F8F0BD2046FFF763FF0D4865
:102BA000012100577156884204D10628F3D1C01E76
:102BB0007070F0BD7070F0BD3846FFF77BFF0028E5
:102BC000F9D1102078800F212046FFF73DFF00F05B
:102BD00047F8F0BD0E020020E0020020180200209D
:102BE000F1B51C4846881C49202E0FD248887D220A
:102BF0001201904204D90020C043FFF7EBFEF8BD5C
:102C0000401C48800020FFF7E5FEF8BD002048800A
:102C10000124009D6D1E2F466F4314E020460F4A8D
:102C2000604339465043FDF771FA2030094962008C
:102C300080B26C318852B04203D360B2FFF7CAFE53
:102C4000F8BD641CA4B200988442E7D368B2FFF7D1
:102C5000C1FEF8BD8A01002016000020DF0F000031
:102C6000F0B500210A4E0B4F052500206A1A0A23F1
:102C70005A4394191A464A43D219235C1354401CF0
:102C8000C0B20A28F9D3491CC9B20629EDD3F0BD58
:102C9000A40200202C0200203A3B2E2F22231617DC
:102CA0000A0B38392C2D20211415080936372A2B08
:102CB0001E1F12130607343528291C1D1011040588
:102CC000323326271A1B0E0F020330312425181920
:102CD0000C0D00013B2F23170B3A2E22160A392D1B
:102CE000211509382C201408372B1F1307362A1EEC
:102CF000120635291D110534281C100433271B0F1B
:102D00000332261A0E023125190D013024180C0049
:102D100000000000000000000000000000000000B3
:102D2000000000000000FF0000000000FF00FFFFA7
:102D3000FFFFFFFFFFFFFFFFFFFFFFFFFFFFFFFFA3
:102D4000FFFFFFFFFFFFFFFFFFFFFFFF000000008F
:102D50000000000000000000000000000000000073
:102D60003F7FFF7F00000000FF007FFFFFFFFFFFAE
:102D7000FFFFFFFF7FFFFFFFFFFFFFFFFFFF7F7FE3
:102D8000FFFFFFFFFFFFFFFF00000000000000004B
:102D900000001F1FFF000000FF1FFF003FFFFFFF9D
:102DA000FFFFFFFFFF3F7FFFFFFFFFFFFFFFFFFF73
:102DB0007FFFFFFFFFFFFFFFFFFF7F7F7F7F7F7FA3
:102DC0007F7F7F7F00001F00000000005F001F7FEB
:102DD000FFFF7F005FFFFF1F3FFFFFFFFF7F7FFFC2
:102DE000FF3F7FFFFFFFFFFFFFFFFF7F7F7F7F7FB3
:102DF0007F7F7F7F7F7F0F0F0F0F0F0F0F0F0F0F43
:102E00000000000000000000000000005F00000063
:102E10000000FF003FFFFFFFFF003FFFFF3F7FFF7E
:102E2000FFFFFFFF7FFFFF7FFFFFFFFFFFFFFFFFB2
:102E3000FFFF7F7F7F7F7F7F7F7F7F7F000000009E
:102E400000000000000000000F0000000000000073
:102E50000F3FFF5F0000000000007FFFFF7FFF00CB
:102E60007F3FFF00FFFFFFFFFFFFFFFFFF7FFFFF31
:102E7000FFFFFFFF7FFFFF7F00000000000000005A
:102E80000000000000000000000000007F1FFF00A5
:102E9000000000007F007FFFFFFF5F007FFF7F7F5C
:102EA000FFFFFFFFFFFFFFFFFF7FFFFFFFFF7FFF32
:102EB0007FFFFF7F00000000000000000000000016
:102EC00000000000000000000000FFFFFF00000005
:102ED000FF007FFFFF7F7F7F7FFFFF7FFFFFFFFF01
:102EE000FFFFFFFFFF7FFFFFFFFF7FFF7FFFFF7FF2
:102EF0000000000000000000000000000000FF00D3
:102F00007F0000000000FFFFFFFFFFFF7F000000C9
:102F1000FF7F7F7FFFFFFF00FFFFFFFFFFFFFFFF40
:102F2000FF7FFFFFFFFF7FFF7FFFFF7F00000000AD
:102F300000000000000000007F00FF007F00000094
:102F40000000FFFFFFFFFFFFFF000000FF7F7F7F0C
:102F5000FFFF7F00FFFFFFFFFFFFFFFFFF3FFFFFC0
:102F6000FFFF7FFF7FFFFF7F00003F3FFF3FFF3FEF
:102F70000000000000FFFFFFFF7F0000000000FFD7
:102F8000FFFFFFFF3F000000FF7F7F7F7FFFFF0FFE
:102F90000FFFFFFFFFFFFFFFFF7F003F3F3F3F7F30
:102FA0003F7F7F3F3F3F3F0000003F3F3F0000002B
:102FB00000FFFFFFFF7F0000000000FFFFFFFFFF9B
:102FC0003F000000FF7F7F7F7FFFFF3F3FFFFFFF4E
:102FD000FFFFFFFFFF7F003F3F3F3F7F3F7F7F3F80
:102FE0000000000000001F1F1F003F00003F3F3F88
:102FF000FF7F3F1F3F0000FFFFFFFFFF3F3F1F001E
:10300000FF7F7F7F7FFFFF3F3FFFFFFFFFFFFFFF50
:10301000FF7F003F3F3F3F7F3F7F7F3F000000003B
:10302000000000000000000000001F0F3F00000033
:103030000000FFFF7F7F7FFF3F003FBFFFFFFFFFDD
:10304000FFFFFF0FFFFFFFFFFFFFFFFFFFFFFFFF80
:10305000FFFFFFFFFFFFFFFF0000000000000F0069
:1030600000000000FFFFFFFFFFFFFF001FFFFF7FCB
:103070007F7F7FFFFF0F3FFFFFFFFFFFFFFFFF7F10
:103080007FFFFFFFFFFFFFFFFF3FFFFFFFFFFFFF90
:10309000FFFFFFFF00000000000000000000FF1F16
:1030A0007F000000FF000000FF7FFF7F7F7FFFFFAA
:1030B000FF00FFFFFFFFFFFFFFFFFF7F7FFFFFFF1F
:1030C000FFFFFFFFFF3FFFFFFFFFFFFFFFFFFFFFD0
:1030D0000000000000007F7F7F0000007F7F7F00F6
:1030E000FFFF7F00FF7FFF7F7F7FFFFFFF7FFFFFEF
:1030F000FFFFFFFFFFFFFF7F7FFFFFFFFFFFFFFFE0
:10310000FF3FFFFFFFFFFFFFFFFFFFFF000000008B
:1031100000007F0000000000FF7F7F7FFFFFFF7F38
:103120001FFFFFFFFFFFFFFFFFFFFFFFFFFFFFFF8F
:10313000FFFFFFFFFFFFFFFFFFFFFFFFFFFFFFFF9F
:10314000FFFFFFFFFFFFFFFF000000000000000087
:103150000000FFFFFF000000FF001F00FFFFFFFF58
:10316000FFFFFF7F7F7FFFFFFFFFFFFFFFFFFF7F6F
:10317000FFFFFFFFFFFFFFFFFFFFFFFFFFFFFFFF5F
:10318000FFFFFFFF00007F1F5F00000000001F7FA8
:10319000FFFFFFFFFF0000007FFFFFFFFFFFFF7F3C
:1031A0003F00FFFFFFFFFFFFFFFF7F00FFFFFFFF6D
:1031B000FFFFFFFFBF00FFFFFFFFFFFFFFFFFF005D
:1031C000000000001F00000000000000BFBFFFFF64
:1031D000FF0000001F7FFFFFFFFFFFFFBF00BFFFDB
:1031E000FFFFFFFFFFFFFF00FFFFFFFFFFFFFFFFEE
:1031F000FF00FFFFFFFFFFFFFFFFFF0000000000D9
:1032000000000000000000003F3FFFFFFF00000043
:103210000F3FFFFFFFFFFFFFFF007FFFFFFFFFFFED
:10322000FFFFFF7FFFFFFFFFFFFFFFFFFF7FFFFFAE
:10323000FFFFFFFFFFFFFFFF000000000000000096
:103240000000000000003F1FFF1F7F000000BF7F45
:10325000FFFFFFFFFF7F0FBFFFFFFFFFFFFFFFFF2E
:103260007FFFFFFFFFFFFFFFFFFFBFFFFFFFFFFF2E
:10327000FFFFFFFF00000000000000000000000052
:1032800000005F0FFFFFFFFF0000BFBFFFFFFFFF5A
:10329000FFFF007FFFFFFFFFFFFFFFFF00FFFFFFBC
:1032A000FFFFFFFFFFFF00FFFFFFFFFFFFFFFFFF2D
:1032B000000000000000000000000000000000000E
:1032C000000000000000BFBFFF00FFFFFF00007F05
:1032D000FFFFFFFFFFFFFF0000FFFFFFFFFFFFFFFC
:1032E000FF0000FFFFFFFFFFFFFFFF0000000000E7
:1032F00000000000000000000000000000000000CE
:1033000000000000000000000000001FFFFFFF00A1
:10331000FFFFFF0000FFFFFF7FFFFFFFFF001FFF1A
:10332000FFFFFF1FFFFFFF1F000000000000000065
:1033300000007F7FFF000000FF001F00FFFF0F5F06
:103340003F1FFF1F7F7F0000000F7F7FFF7F3F7FBA
:103350000F000F5F3F7FFF7F3FFFFF000F3F3F7F6B
:10336000FF7F3FFF00007F1F5F00000000001F7F06
:10337000FFFFFFFFFF0000005F0F3F7F7F7F1F0FFA
:103380003F005F0F1F3F3F1F0F000F003F1F1F1F1A
:103390001F1F00000000FFFF5F5FFFFF5F5F5F0018
:1033A000000000001F000000000000003F3F3F3F02
:1033B0003F0000001F3F5F5F5F5F5F1F3F003F5F99
:1033C000FFFFFFFF0F3F3F00FFFFFFFFFF0F0F0F4C
:1033D0000F007F5F7F5F7F5F00003F000000000005
:1033E00000000000000000003F3F7F5F1F00000062
:1033F0000F3F5FFF7F5F1F7FFF003F7F3F1F1F1F4C
:103400001F0F3F7F5F7F3F1F0000000F3F7F5F7FE9
:103410005FFF7F001F7FFFFF000000000000000033
:103420000000000000003F1F7F1F7F0000003F1FC3
:10343000FF1F00005F7F0FBFBF3FFF0F00000FFFA8
:103440007FFFBF5F5F3F0F3FFFFFBFFFBFFFFF5F1C
:10345000FFFFFFFF00000000000000000000000070
:1034600000005F0F5F3F1F0F0000BFBFFFFF7F5FC8
:103470003F3F0000005F7FFF7F5F3FFF0000000FC6
:103480007FFF7F5F1FFF00FF5F0F7FFFFF5FFFFF7B
:10349000000000000000000000000000000000002C
:1034A000000000000000BF1F1F005F5F5F00007F83
:1034B0007F7F1F5F3F3F3F00005F5F7F1F3F0F0F1A
:1034C0003F00001F5FFF5F3F0F0F0F000000000075
:1034D00000000000000000000000000000000000EC
:1034E00000000000000000000000001F7F3F7F0080
:1034F000FF7F7F00007F7F7F3F3FFFFFFF001FFFB9
:10350000FF3F3F1F3FFFFF1F0000000000000000C3
:1035100000000000000000000000000000000000AB
:10352000000000000000FF5FFF5FFF5FFF5FFF5FC5
:10353000FFFFFFFFFFFFFFFFFFFFFFFFFFFFFFFF9B
:10354000FFFFFFFF0000000000000000000000007F
:103550000000000000000000000000003F005F00CD
:103560005F0000007F3FFFFFFFFFFFFF3F5FFFFFA8
:10357000FFFFFFFFFFFF7FFFFFFFFFFFFFFFFFFFDB
:10358000000000000000000000000000000000003B
:1035900000000000000000001F3FFF5FFF5F000011
:1035A0003F1FFFFFFFFFFFFF001FFFFFFFFFFFFFAA
:1035B000FFFF5F7FFFFFFFFFFFFFFFFF0000000037
:1035C0000000000000000000000000003F005F005D
:1035D00000000000003F3FFFFFFF00001F00000F42
:1035E0003FFFFFFF003FFF1F0000FFFFFFFF011F26
:1035F000FFFFFFFFFFFFFFFF0000000000000000D3
:1036000000000000000000001F1FFF1F000000005E
:103610001F1FFF3FFFFF00001F1F3F3FFFFFFFFF78
:1036200000007F7F7F0F0F3FFFFF0000FFFF0F00B5
:10363000000FFFFF0000000000005F005F000000BF
:10364000000000007F1FFF7F000000001F1F7FFFA2
:10365000FF7F0000001FFF7FFF1F1FFF00001FFFF5
:10366000FFFF000000FF0000FFFFFFFF000000FF62
:10367000000000000F0F7F5F1F5F00001F0F1F7F04
:10368000FFFFFF7F00007F5F7F7F7F3F3F3F0000A6
:103690007F7FFFFF7F0F000F00007F7FFF3F0F0046
:1036A00000000000FFFF3F3FFF0F0FFF0000001F63
:1036B0007F1F7F1F0F1F00001F5F7F3F1F0F005FD7
:1036C00000005F7F7F3F1F00000000005F7F7F3FA3
:1036D0001F1F1F1F00007FFF7F3F3F3F3F3F000036
:1036E000FFFF7F7F7F7F7F7F00000F3F3F3F1F00F7
:1036F000000000003F1F00001F1F00000000FF3FF0
:10370000001F3F5F000000003F3F001F3F5F1F1F83
:1037100000001FFF1F3F5F5F5F5F00001F1FFFFF75
:103720005F5F5F5F007FFF5F1F0000000000005FC2
:10373000FFFFFF1F1F000000003FFFFFFF001F1FD4
:103740000F00001FFFFF00005F5F1F1F000FFFFF44
:1037500000007F5F1F1F00001FFFFFFFFFFFFFFF35
:103760001FFF1F000000000000005FFFFF0F0F00A1
:10377000000000003FFFFF1F1F00000000001F3F70
:103780007FFFFF00000000000FFF3F1FFF00001F32
:103790001F1F00FFFFFFFF1FFFFFFFFF3F00000095
:1037A000000000000000FFFF7F000000000000009C
:1037B000FF3FFF0F0F00000000003FFFFF3FFF0F24
:1037C0000F000000FF0000FF3FFF0F0F00001F0071
:1037D000001F3F3FFF3F000F1F001F1F00000000A2
:1037E0000000FFFFFF00000000000000FF3FFF009F
:1037F0000000000000003FFFFF0F0F00000000006E
:103800003F0101FF1F0F0F0000001F00001FFFFFFF
:10381000FF0F0F013F3FFF003FFF000000005FFF71
:103820003F000000000000001FFF1F00000000001C
:103830000000001F1F000000000000001FFF3FFFEE
:103840000F0000000000FFFFFFFFFF7F5F0001008F
:103850000000FF00FFFF7F0000005FFFFF007F0010
:1038600000000000FFFFFF00000000000000FFFF5D
:10387000FF00000000000000FFFFFF00000000004C
:103880000000FFFFFFFFFF0F0F000000000000001F
:103890000000000000000000000000000000000028
:1038A0005F005F0000000000FF00FFFFFF7FFFFFE1
:1038B000FFFFFFFFFFFFFFFFFFFFFFFFFFFFFFFF18
:1038C000FFFFFFFFFFFFFFFF000000000000000000
:1038D000000000000000000000000000FF5FFF3F4C
:1038E000000000000000FFFFFFFFFF003F003F005F
:1038F000FFFFFFFFFFFFFFFFFFFFFFFFFFFFFFFFD8
:10390000FFFFFFFF000000000000000000005F005C
:103910005F00000000000000FFFFFF5F00000000EC
:103920000000FFFFFFFFFF0000000000FFFFFFFFA0
:10393000FFFFFF5FFF3FFFFFFFFFFFFFFFFFFFFFF7
:103940000000000000000000000000000000000077
:1039500000000000000000003F5F3F000000FFFF8C
:10396000FF0FFFFFFF000000FFFFFFFFFFFFFF0053
:1039700000003FFFFFFFFFFF3F00000000000000CE
:1039800000000000005F0000000000000000001FB9
:10399000000000005F5F5F00000F00005F1F5F5FBF
:1039A000FF0000005F5F5F5F5FFFFF0000005F5F81
:1039B0005F5FFFFFFF00000000000000000000004C
:1039C0001FFF00000000000000001F5F000000005B
:1039D0005F5F5F001F1F00005F1F5F5FFF1F000F23
:1039E0005F5F5F5F5FFFFF1F00005F5F5F5FFFFF65
:1039F000FF5F000000000000000000000000000069
:103A000000000000000000000000000000000000B6
:103A10000000000000000000000000000000FFFFA8
:103A20007F00FF5FFF00003FFFFFFF1FFFFFFF0F53
:103A30000000000000000000000000000000000086
:103A40000000000000000000000000000000000076
:103A50001F00000000000000001FFF3F1F00FFFFCD
:103A60003F003FFFFFFF3F1FFFFF7F0F00000000F1
:103A70000000000000000000000000000000000046
:103A80000000000000000000000000007F000000B7
:103A9000000000007F7FFFFF7F00FFFFFF003FFF70
:103AA000FFFFFF1FFFFFFF1F0000000000000000DE
:103AB0000000000000000000000000000000000006
:103AC0000000000000000000FF000000FF000000F8
:103AD0001F7FFFBF3FBFFFFF3F001FFFFFFFFFFF35
:103AE000FFFF3F0F0000000000000000000000008A
:103AF00000000000000000000000000000000000C6
:103B000000000F1FFF000000FF0000003FFFFFBF8D
:103B10003FBFFFFF3F00FFFFFFFFFFFFFFFF3F0F24
:103B20000000000000000000000000000000000095
:103B3000000000000000FF000000000000003F7FC8
:103B4000FF00000000000000FFFFFF7F5F0000009B
:103B50007FFFFFFFFFFFFF7FFF3FFFFF0000000031
:103B60000000000000000000000000000000000055
:103B700000003F000000000000003F7F0000000048
:103B800000007F7FFFFFFF0000000000FFFFFFFF3E
:103B9000FFFFFF3FFF3FFFFF0000000000000000AD
:103BA00000000000000000000000000000005F3F77
:103BB0005F0000005F00FFFFFFFF000000FF3F5FAE
:103BC000FFFFFF00000000003FFFFFFFFFFFFFFFC0
:103BD000FF3FFFFF000000000000000000000000A9
:103BE000000000000000000000003F005F005F00D8
:103BF0003F003F3FFFFF00FF00FFFF3FFFFFFF00D1
:103C000000000000FFFFFFFFFFFFFFFFFFFFFFFFC0
:103C100000000000000000000000000000000000A4
:103C20000000000000000000000000000000000094
:103C3000FFFFFFFFFFFFFF00FFFFFF3F3F3F3F3F53
:103C4000FFFFFFFFFFFFFFFFFFFFFFFF0000000080
:103C50000000000000000000000000000000000064
:103C6000000000000000000000000000FF5FFF00F7
:103C70000000FF005FFFFFFFFFFFFFFFFFFFFFFFF1
:103C8000FFFFFFFFFFFFFFFF00000000000000003C
:103C90000000000000000000000000000000000024
:103CA000000000000000000000005F0000000000B5
:103CB0000000FFFFFFFFFF00FFFF005FFFFFFFFFB0
:103CC000FFFFFFFF000000000000000000000000F8
:103CD00000000000000000000000000000000000E4
:103CE00000000000FFFFFF000000FF00FFFFFFFFDC
:103CF000FFFFFFFFFFFFFFFFFFFFFFFFFFFFFFFFD4
:103D000000000000000000000000000000000000B3
:103D100000000000000000000000000000000000A3
:103D20003F00000000000F00FFFFFFFFFF00FF5FEC
:103D3000FF0FFFFFFFFFFFFFFFFFFFFF000000007F
:103D40000000000000000000000000000000000073
:103D5000000000000000000000000000FF00000064
:103D600000005FFFFFFFFF3F3F003F3FFFFFFFFF00
:103D7000FFFFFFFFFFFFFFFF00000000000000004B
:103D80000000000000000000000000000000000033
:103D90000000000000000000000000000000FF0024
:103DA0000000FFFF00000000FFFFFFFFFFFFFF1FFD
:103DB000FFFFFFFF00000000000000000000000007
:103DC00000000000000000000000000000000000F3
:103DD00000000000FF0000000000FF00FFFFFFFFE9
:103DE00000003F5FFF1FFFFFFFFFFFFFFFFFFFFF21
:103DF00000000000000000000000000000000000C3
:103E000000000000000000000000000000000000B2
:103E10005F00000000005F00FFFFFF0000000F0FC9
:103E2000FFFFFFFFFFFFFF00FFFFFFFF000000009D
:103E30000000000000000000000000000000000082
:103E40000000000000000000000000000000000072
:103E500000000000FF5FFF00000000005F7FFFFF29
:103E6000FFFFFF00FFFFFFFF000000000000000059
:103E70000000000000000000000000000000000042
:103E80000000000000000000000000000000000032
:103E90005F1F5F00000000005F00FFFFFF3F1F008B
:103EA0003F5FFFFF00000000000000000000000076
:103EB0000000000000000000000000000000000002
:103EC00000005F001F00000000000000FFFF5F0017
:103ED0000000005FFF5FFFFFFF00000000FFFFFF2B
:103EE00000000000000000000000000000000000D2
:103EF0000000000000000000000000000000FF00C3
:103F0000FF00000000000000FFFFFFFF00000000B6
:103F1000FFFFFFFFFFFF00000000FFFF00000000A9
:103F20000000000000000000000000000000000091
:103F3000000000000000000000000000FF00000082
:103F40000000000000FFFFFFFF00000000FF00FF77
:103F5000FFFFFF00000000FF000000000000000065
:103F60000000000000000000000000000000000051
:103F700000000000000000000000FF000000000042
:103F8000000000FFFFFF00000000000000FFFFFF37
:103F9000000000FF00000000000000000000000022
:103FA0000000000000000000000000000000000011
:103FB000000000000000FF000000000000000FFFF4
:103FC000FFFF0F0000000000FFFFFFFFFF000000E9
:103FD00000000000000000000000000000000000E1
:103FE00000000000000000000000000000000000D1
:103FF0000000FF00000000000000FFFFFFFF0000C6
:1040000000000000FFFFFFFF0000000000000000B4
:1040100000000000000000000000000000000000A0
:104020000000000000000000000000000000000090
:10403000000000000000FFFFFF5FFF000000000025
:10404000FFFFFFFFFF000000000000000000000075
:104050000000000000000000000000000000000060
:104060000000000000000000000000000000000050
:104070000000FF3FFF3FFF000000FF1FFFFFFFFFAB
:10408000FF1FFF0000000000000000000000000013
:104090000000000000000000000000000000000020
:1040A000000000000000000000000000FF00FF3FD3
:1040B000FF3FFF00FF00FFFFFFFFFFFFFFFFFFFFCE
:1040C0000000FF0000FF0000FF0000FF00000000F4
:1040D00000000000000000000000000000000000E0
:1040E000001E00000000001E000000320000001E44
:1040F0000032001E503250501E003232500050002C
:10410000003250325000005000000000000000005B
:10411000000000000000000000000000000000009F
:104120000000001E000000320000001E0032001ED1
:10413000503250501E003232500050000032503287
:1041400050000050000000000000000000000000CF
:10415000000000000000000000000000000000322D
:10416000000000321E00001E0032321E503250503D
:104170001E003232500050000032503250000050C9
:1041800000000000000000000000320000000000FD
:1041900000000000000000000000001E1E000032B1
:1041A000320000323232320032000000003232007F
:1041B000001E503232325032503232500000000075
:1041C0000000320000003232000000000032000027
:1041D00000320000000000321E00000A0A00000049
:1041E000320A0A00320000001E3232000000500A7B
:1041F0000A325032500A0A5000000000000000004D
:1042000000000000000000000000000000000000AE
:104210000000000000003200000000323200000008
:10422000320000501E323200005050000050503218
:1042300050000050000000000000000000000000DE
:10424000000000000000000000000000000000006E
:1042500000000000001E1E000000001E3200005082
:104260001E323200005050000050503250000050BA
:10427000000000000000000000000000000000003E
:10428000000000000000000000000000000000002E
:10429000321E1E000000001E320000501E3232325C
:1042A00000505000325050325000005000000000CA
:1042B00000000000000000000000000000000000FE
:1042C000000000000000000000000000500A0A008A
:1042D0005000000A320000500A323232000A0A50FE
:1042E00032500A320A0000500000000000000000B6
:1042F00000000000000000000000000000000000BE
:104300000000005000005000500A0A005000000A4F
:10431000320050500A323232500A0A5032500A32B9
:104320000A00005000000000000000000000000033
:1043300000000000000A0000000A00000000005019
:1043400050000000500A0A000000000A00505050BF
:104350000A323232500A0A5032500A320A000050F1
:1043600000000000000000001E0000001E00000011
:10437000001E1E0000001E000000001E5000001E57
:10438000500A0A000000000A00501E1E0A1E3232A7
:10439000500A0A9632500A1E0A000050000000001F
:1043A000000000000A0000000A000000000A0A00E5
:1043B00000000A000000000A5000000A500A0A002B
:1043C0000000000A00501E1E0A0A32960A0A0A500D
:1043D000320A0A0A0A00000A000000000000000A6F
:1043E0000A0000000A0A0000000A32000000320041
:1043F0000000003250000032500A0A000000000A9B
:104400000050961E321E1E320A320A1E320A0A1E40
:104410000A00000A00000000000000000000000088
:1044200000000000000000000000001E000000006E
:104430001E0000001E1E00000032960000323200F6
:1044400000003232000000500A505000500050501E
:10445000000000000000000000000000000000005C
:104460000000000A00001E1E0A0000001E000000DE
:104470001E9600000032320000323200000032325C
:1044800000000A500A50500A50005050000000002E
:104490000000000000000000000000000000000A12
:1044A0000000009600000000000000001E1E00003A
:1044B00000003200003232000000323200000050B2
:1044C0000A5050009600505000000000000000000C
:1044D0000000000000005000000000960000001ED8
:1044E00000000000000000001E1E500000003250BE
:1044F0000032320000003296000000500A50500096
:1045000050005050000000000000000000000000BB
:10451000000000000000000000000000000000009B
:10452000000000001E000A000000960A003232005F
:104530000000323200000A500A50500A5000505019
:1045400000000000000000000000000000001E004D
:104550000000001E0000001E1E0000000000000001
:104560001E000000006E3200006E32000000326E4D
:1045700000000A500A50500A50005050000000003D
:10458000000000000000000000000000000000002B
:10459000000000001E000000001E00001E321E0071
:1045A000006E3232006E32000000326E00000A509F
:1045B0000A50500A50005050000000000000000A4D
:1045C000000A0000000000000000000000000000E1
:1045D000000000000032000000323200006E323273
:1045E000326E32000000326E00320A500A50500A19
:1045F0005000505000000A000000000000000000C1
:1046000000000000000000000000000000000000AA
:10461000000A0000003232000032320A006E32001E
:104620000000326E000A0A500A50500A960050509C
:10463000000000000000000000000000000000007A
:10464000000000000000000000000000320A00002E
:104650001E320000006E320A0A6E320000003296EE
:10466000000A0A500A50500A500050500000000042
:104670000000000000000000000A00000000000A26
:1046800000000A0000000000000000001E00000002
:10469000000A960A000A32000000320A000A0A5094
:1046A0000A50500A50005050000000000A0000005C
:1046B0000000000000000A000000000000000A00E6
:1046C0000000000A0000000A0A0000000A0A0A0AA4
:1046D0000A0A32000000320A000A0A500A50000A90
:1046E00050005050000000000A00000000000000D0
:1046F00000000A000000003200000000000000007E
:10470000323200000A000000000A0A0A000A3200E1
:104710000000320A000A00500A50001E500050509B
:104720000000000000000000000000000032000057
:104730000000000000000000000000003232000015
:104740000A000000000A0A0A000A32000000320AC9
:10475000000A00500A50001E500050500000000097
:104760000000000000000000000A0000000000320D
:1047700000000000000000003232000000000000D5
:1047800000500A0A000000000000320A000A00502F
:104790000A50001E500050500000000000000000B1
:1047A00000000000000A000000000032000000329B
:1047B00032000000323200000000320000000A0A1D
:1047C000000000000000000A000A00500A50001E0D
:1047D00050005050000000000000000000000000E9
:1047E000000A320000000032000000003200000029
:1047F000320000000000320000000A0A003200000F
:104800000000000A000A00500A50001E50005050DC
:104810000000000000000000000000000000320066
:104820000000003200000000320000000000000024
:104830000000320000000A0A000050000000000AD8
:10484000000A00500A50001E5000505000000000A6
:1048500000000000000000000000320000000032F4
:1048600000000000000000000050000000500000A8
:1048700000000A00000050000000000000000000DE
:104880000A50001E500050500000000000000000C0
:1048900000000000000032000000003200000000B4
:1048A00000000000000000000000000000000A00FE
:1048B0000000500000000000500000500A500000AE
:1048C00050505050000000000000000000000000A8
:1048D00000003200000000000000000000000000A6
:1048E000000000000050000000000A0000005050CE
:1048F00000000000500000500A500000505050507E
:1049000000000000000000000000000000000000A7
:104910000000000000000000000000000000000097
:104920000A50500000000A500000505000000000E3
:10493000500000500A50000050505050000000003D
:104940000000000000000000000000000000000067
:104950000000000A0000000000000000001E1E0011
:1049600000000A1E00001E00000000005000005061
:104970000A000000505050500000000000000000ED
:104980000000000000000A0000000000000000001D
:104990000000000000000000000A0A0000000A0AEF
:1049A00000001E0000000000505000500A000000EF
:1049B00050505050000000000A00000000000000AD
:1049C00000000000000000000000000000000000E7
:1049D0000000000000500A0000000A5000001E0005
:1049E00000000000505000500A000000505050508D
:1049F00000000000000000000000000000000000B7
:104A000000000000000000000A0000001E0000007E
:104A100000500A0000000A5000001E0000000000C4
:104A2000505000500A00000050505050000000004C
:104A30000000000000000000000000000000000076
:104A40000000000000000000000A000032500A00D0
:104A500000000A5000961E000000325050500050D6
:104A60000A00000096005050000000000000000006
:104A70000000000000000000000000000000000036
:104A80000A000000000A000000000A0000320A00CC
:104A900000321E0000003250000000500A1E0000CC
:104AA0009600001E00000000000000000000000052
:104AB00000000000000000000000000000000000F6
:104AC00050000000500A000000320A00000A1E00D8
:104AD00000000A500A0000500A1E1E009600001E28
:104AE00000000000000000000000000000000000C6
:104AF0000000000000000050500000005050000076
:104B00000A0A0000000A0A0000001E00000000500F
:104B10000A0000500A1E1E003200001E00000000A5
:104B20000000000000000000000000000000000085
:104B30000000000A0A0000000A0A00000A0A000039
:104B4000000A0A0000001E000A0000500A0000507F
:104B50000A1E1E003200001E0000000000000000BF
:104B60000000000000000000000000000000000045
:104B70000A000000000A00000000000000000A0017
:104B800000001E00000000500A0000500A1E1E0017
:104B90003200001E000000000000000000000000C5
:104BA0000000000000000000000000000000000005
:104BB000000000000000000000000A0000501E007D
:104BC000000050500A5000500A1E1E003200001E05
:104BD00000000000000000000000000000000000D5
:104BE00000000000000000000000000000000000C5
:104BF0000000000032000A0000501E00000050506B
:104C00000A5032500A1E1E323200001E0000000000
:104C10000000000000000000000000000000000094
:104C20000000000000000000000000000000000084
:104C300032000A0000501E00505000000A0032509E
:104C4000001E1E323200001E0000000000000000A6
:104C50000000000000000000000000000000000054
:104C600000000000000000000000000032000A0008
:104C700050001E00000000500A50000000001E32CC
:104C80005000501E00000000000000000000000066
:104C90000000000000000000000000000000000014
:104CA0000000000A000A0A5032000A0050001E509C
:104CB000000050500A50000000001E325000501EEC
:104CC00000000000000000000000000000000000E4
:104CD00000000000000000000000001E0000001E98
:104CE0001E1E1E00001E0000001E1E1E1E001E00B6
:104CF0001E001E001E0000005000501E000000009C
:104D000000000000000000000000000000000000A3
:104D100000000000000000001E0000001E1E1E001B
:104D2000001E0000001E1E1E1E1E1E001E001E0075
:104D30001E0000505000501E000000000000000047
:104D40000000000000000000000000000000000063
:104D5000000000001E0000001E1E1E00001E0000BD
:104D600000501E1E1E0050001E0000001E000050BD
:104D70005000501E00000000000000000000000075
:104D80000000000000000000000000000000000023
:104D900000000000001E1E000050000000501E1EFB
:104DA0001E001E001E001E001E0000505000501E5F
:104DB00000000000000000000000000000000000F3
:104DC00000000000000000000000000000000000E3
:104DD000000A0000000050000000501E5000001E9D
:104DE0005000001E1E0000505000501E0000000029
:104DF00000000000000000000000000000000000B3
:104E00000000000000000000000A00000050000048
:104E10000000500A0000001E5000000A5000000A66
:104E20001E0000501E0A501E00000000000000007E
:104E300000000000000000000000000A0000000A5E
:104E400000000000005000000000000000000A0AFE
:104E50000000001E5000000A0000500A00500050E0
:104E60001E0A501E000000000000000000000000AC
:104E7000000000000000000A000000000000000028
:104E8000000000000000000000000A500000001EAA
:104E90005000000A5000000A005000501E0A501E28
:104EA0000000000000000000000A000000000000F8
:104EB000000000000000000000000000001E0000D4
:104EC00000001E0000000A500000001E5000000AF2
:104ED00050000A0A005000501E0A501E0000000038
:104EE0000A000000000000000000000000000000B8
:104EF0000000000000000000001E0000001E1E0058
:104F000000000A500000001E5000000A50000A5025
:104F1000005000501E0A501E00000000000000005B
:104F20000000000000000000000000000000000081
:104F300000000000001E0000001E1E0000000A50BD
:104F40000000001E500000505000000A0050001EDB
:104F50001E0A501E000000000000000000000000BB
:104F60000000000000000000000000000000000041
:104F7000000A0000005000000000500A0000501E0F
:104F8000500000005000000A1E00001E0A0A501EB9
:104F90000000000000000000000000000000000011
:104FA00000000000000000000A0000001E000000D9
:104FB0000050000000000A0A00001E1E0A00000047
:104FC0005000000A1E00001E0A0A501E00000000C9
:104FD00000000000000000000000000000000000D1
:104FE0000000000A00000000005000000050000017
:104FF00000000A0A00001E1E500000005000000AB7
:105000001E00001E1E0A501E0000000000000000CE
:105010000000000000000000000000000000000090
:105020005000000000000000005000000000000AD6
:1050300000001E1E500000005000000A1E00000A62
:105040000A0A501E000000000000000000000000DE
:1050500000000A0000000000000000000000000046
:1050600000000000001E1E000000500A00001E1E6E
:10507000500000005000000A1E00001E0A0A501EC8
:1050800000000000000000000000000000000A0016
:1050900000000000000000001E000000001E0000D4
:1050A000001E1E000000500A00001E1E5000001EC0
:1050B00050001E0A1E00001E0A0A501E00000000BA
:1050C000000000000000000000000A0000000000D6
:1050D000000000000A000000000A0000000A0A00A8
:1050E0000000500A00001E1E0A000A1E50001E0A80
:1050F0001E00001E0A0A501E0000000000000000F2
:105100000000000000000A00000000000000000095
:105110000A000000000A0000000A0A000000500A0D
:10512000000A1E1E0A0A0A1E50001E0A1E00001E49
:105130000A0A501E000000000000000000000000ED
:10514000000000000000000000000000000000005F
:10515000000A000000500A000000500A000A1E1E4B
:105160000A0A0A1E50001E0A1E00001E0A0A501ECD
:10517000000000000000000000000000000000002F
:10518000000000000000000050000000000A0000C5
:10519000000A0A000000500A00001E1E0A0A0A1E29
:1051A00050001E0A1E00001E5050501E000000003D
:1051B00000000000000000000000000000000000EF
:1051C000000000000000000000500000000A0A0A71
:1051D0000000500A00001E1E0A0A0A1E50001E503F
:1051E0001E00001E0A50501E0000000000000000BB
:1051F00000000000000000000000000000000000AF
:10520000000A0000000A0000000A0A0A0000000A62
:105210000A00001E0A0A0A0050001E501E00001E4E
:105220000A50501E000000000000000000000000B6
:10523000000000000000000000000000000A000064
:10524000000A000000000A0A0000000A0A00001E0E
:105250000A0A0A0050001E501E00001E0A50501E6E
:10526000000000000000000000000000000000003E
:105270000000000000000000000A00000000000024
:1052800000000A0A0000000A0A000A1E0A500A006A
:105290000A001E501E00000A0A50501E00000000A6
:1052A00000000000000000000000000000000000FE
:1052B00000000000000A00000000000000000A0AD0
:1052C0000000000A0A00001E0A500A0000001E50DA
:1052D0000000000A0A50501E0000000000000000FC
:1052E00000000000000000000000000000000000BE
:1052F000000A00000000000000001E50000A00002C
:105300000A0000000A505000000A1E0A000A0A0A99
:105310005050501E0000000000000000000000007F
:105320000000000A0A00000000000000000A00005F
:1053300000000A0000001E50500000000A0000009B
:105340001E500A0A001E1E0A0A500A0A5050501E19
:1053500000000000000A0000000000000000000A39
:10536000000000000A000000000A000000005000D9
:1053700000001E500A0000000A0000001E000A0A79
:10538000001E1E0A0A501E0A5050501E0A0000003D
:10539000000A000000000A000000000A00000000EF
:1053A0000A00000000500000000050000000005003
:1053B0000A0000000A0000001E000A0A00001E0A7F
:1053C000501E1E0A500A501E0A000000000A0A0061
:1053D000000000000000000A0000000000000000C3
:1053E000000A000000000A00000000500A0000004F
:1053F0000A00000000000A0A001E1E0A960A1E0A81
:10540000500A501E0A00000000000A0000000000C0
:10541000000000000000000000000000000A1E0064
:1054200000000A00000000500A0000000A96000078
:1054300000000A5000001E0A1E0A1E0A500A5050A0
:10544000000000000000000000000000000000005C
:105450000000000000000000000A1E00000096008E
:10546000000000500A0000000A50000000000A0A74
:105470000A001E0A1E0A000A500A0A500000000014
:10548000000000000000001E0000000000000000FE
:10549000000000000096000000000A00000000501C
:1054A000500000000A1E000000000A0A0A001E0A3E
:1054B0001E0A000A500A0A50000A000000000000FC
:1054C00000000000000000000000000000000000DC
:1054D00000000A000000500000000050001E000004
:1054E000501E1E00000050000000000A1E00005068
:1054F0000A0A0A96000000000000000000000000F8
:1055000000000000000000000000000000000A0091
:105510000000000000000050960000005000000055
:10552000000050500000000A1E0000500A0A509669
:10553000000000000000000000000A000000000061
:10554000000000000000000000000000000000005B
:1055500000000050500000005000000000005050BB
:105560000A00000A1E0000500A0A0A50000000004B
:10557000000A000000000000000000000000000021
:10558000000000000000000000005000000000507B
:105590005000000050000000000050500000000AC1
:1055A0001E1E1E500A0A501E0000000000000000CF
:1055B00000000000000000000000000000000000EB
:1055C00000000A00000050000000005050000000E1
:1055D00050000000000050500000000A1E001E5045
:1055E0000A0A1E1E000000000000000000000A0061
:1055F00000000000000000000000000000000000AB
:10560000000050000000005050000000500000005A
:10561000000050960000000A1E0096500A0A0A6E0A
:10562000000000000000000000000000000000007A
:10563000000000000000000000000000000000006A
:1056400000000050000A000050960000000050507A
:105650000000000A1E0096500A0A0A6E00000000B0
:10566000000000000000000000000000000A000030
:105670000000000000960000000000000000000094
:105680005000000050000000005050500000500A30
:105690001E0000500A0A0A1E000000000000000060
:1056A0000000000000000000000A000000000000F0
:1056B000006E00000000000000000000500000002C
:1056C00050000000005050500A00500A1E001E50AA
:1056D0000A0A0A1E00000000000000000000000A84
:1056E0000000000000000000000000000096000024
:1056F00000005000000000005000000050000000BA
:10570000005050500000500A1E001E500A0A961EFB
:105710000000000000000A000000000A0000000075
:1057200000000000000000000096000000000A00D9
:105730000000000050000000500A00000050500A15
:105740000000500A1E006E500A0A506E0000000051
:1057500000000A00000000000000006E00000000D1
:1057600000000000006E000000005000000000007B
:10577000500000005050001E00000050001E000AA3
:105780001E001E500A0A501E0A0000000000000001
:105790000000000000000000000000000000000009
:1057A00000000000000000000000000050000000A9
:1057B00050501E1E00000050501E000A1E1E0050B9
:1057C0000A0A500A0000000000000000000000006B
:1057D00000000000000000000000000000000000C9
:1057E00000000000505000005000000050501E50BB
:1057F00000000050501E000A1E1E00500A0A500AE7
:105800000000000000000000000000000000000098
:10581000000000000000000000000A000A00000074
:10582000000000000000000050501E50000000006A
:10583000001E000A1E1E00500A0A500A0000000046
:105840000000000000000000000000000000000058
:10585000000000000000000000000A0A0A0000002A
:105860000A0A0A0A320A32003232320A320A0A506C
:105870000A50000A500050500000000000000000D4
:105880000000000000000000000000000000000018
:105890003200003200000A0A320000000A000A3218
:1058A0003200000032323200320A0A500A50000040
:1058B0000000505000000000000000000000000048
:1058C0001E003200001E000A000000000000000060
:1058D00000000000000000000A000032320000005A
:1058E00032323250320A0A500A5000000000505042
:1058F00000001E000A00001E000A00000000000058
:10590000000000000000000000000A00000032005B
:10591000005000000A0000323200320032320050E3
:10592000320A0A500A0000000000500000001E0069
:105930000A00001E000A0A000000000032000000F9
:1059400000000000000000000000000050500000B7
:10595000005000323200320032325050320A0A50C7
:105960000A000000500050003200000000000A0051
:105970000000000000000000000000000000000027
:1059800000000000000000005050000000500032F5
:105990003200320032325050320A0A500A000000FF
:1059A0005000500000000000000000000000000057
:1059B0000000000000000000500050000000000047
:1059C0000000005000500000005000323200320051
:1059D00032325050320A0A500A0000005000500083
:1059E00000000000000000000000000000000000B7
:1059F0000000000000000000000000003200320043
:105A000000000000005000323200320032325050AC
:105A1000320A0A000A000000000000000000000036
:105A20000000000000000000000000000000000076
:105A300000000000000000000000323200320000D0
:105A4000005000323200320032325050320A0A0026
:105A50000A0000000000000000000000000000003C
:105A600000000032000000003200000000000000D2
:105A70000000000000000000323200000A50323204
:105A80003200320032325050320A0A000A0000005E
:105A900000000000003200000000320000000000A2
:105AA00000000000000000000000000000000000F6
:105AB00000000000000000000A50323232003200C4
:105AC0003232505032320A320A0000000000000028
:105AD000000A0000000000000000000000000000BC
